:100000004FC200006EC200006CC200006AC2000055
:1000100068C2000066C2000064C2000062C2000044
:1000200060C200005EC200005CC200005AC2000054
:1000300058C2000056C200000C94CE0C52C2000000
:1000400050C200004EC200004CC200004AC2000074
:1000500048C2000046C2000044C2000042C2000084
:1000600040C200003EC200003CC200003AC2000094
:1000700038C2000036C2000034C2000032C20000A4
:1000800030C200002EC200002CC200002AC20000B4
:1000900028C2000026C2000024C2000022C20000C4
:1000A00020C200001EC200001CC200001AC20000D4
:1000B00018C2000016C2000014C2000012C20000E4
:1000C00010C200000EC200000CC200000AC20000F4
:1000D00008C2000006C2000004C2000002C2000004
:1000E00000C20000FEC10000FCC10000FAC1000017
:1000F000F8C10000F6C10000F4C10000F2C1000028
:10010000F0C10000EEC10000ECC10000EAC1000037
:10011000E8C10000E6C10000E4C10000E2C1000047
:10012000E0C10000DEC10000DCC10000DAC1000057
:10013000D8C10000D6C10000D4C10000D2C1000067
:10014000D0C10000CEC10000CCC10000CAC1000077
:10015000C8C10000C6C10000C4C10000C2C1000087
:10016000C0C10000BEC10000BCC10000BAC1000097
:10017000B8C10000B6C10000B4C10000B2C10000A7
:10018000B0C10000AEC10000ACC10000AAC10000B7
:10019000A8C10000A6C10000A4C10000A2C10000C7
:1001A000A0C100009EC100009CC100009AC10000D7
:1001B00098C1000096C1000094C1000092C10000E7
:1001C00090C100008EC100008CC100008AC10000F7
:1001D00088C1000086C1000084C1000082C1000007
:1001E00080C100007EC100007CC100007AC1000017
:1001F00078C1000076C1000074C10000DB16DB1678
:1002000008170D172217DB16DB1608170D1700004D
:10021000000000000020202020200020505050002E
:100220000000005050F850F850502078A07028F08E
:1002300020C0C810204098186090A040A890686026
:1002400020400000000010204040402010402010BE
:1002500010102040005020F8205000002020F820EE
:10026000200000000000602040000000F8000000B6
:1002700000000000006060000810204080007088CE
:1002800098A8C888702060202020207070880810EE
:100290002040F8F810201008887010305090F810A6
:1002A00010F880F008088870304080F0888870F876
:1002B0000810204040407088887088887070888856
:1002C000780810600060600060600000606000609E
:1002D0002040081020402010080000F800F800001E
:1002E00080402010204080708808102000207088F6
:1002F0000868A8A87070888888F88888F08888F0CE
:100300008888F070888080808870E09088888890E5
:10031000E0F88080F08080F8F88080E08080807055
:10032000888080988870888888F8888888702020DD
:1003300020202070381010101090608890A0C0A06D
:100340009088808080808080F888D8A88888888875
:100350008888C8A898888870888888888870F08875
:1003600088F080808070888888A89068F08888F0FD
:10037000A09088788080700808F0F8202020202045
:10038000208888888888887088888888885020880D
:100390008888A8A8D888888850205088888888505D
:1003A00020202020F80810204080F838202020202D
:1003B000203800804020100800E02020202020E08D
:1003C00020508800000000000000000000F84020DD
:1003D0001000000000000070087888788080B0C8A5
:1003E0008888F00000708080887008086898888885
:1003F0007800007088F88070304840E0404040004D
:100400000078887808308080B0C8888888200060AC
:100410002020207010003010109060404048506044
:100420005048602020202020700000D0A8A8888894
:100430000000B0C888888800007088888870000034
:10044000F088F08080000068987808080000B0C844
:10045000808080000070807008F04040E04040489C
:1004600030000088888898680000888888502000BC
:10047000008888A8A8500000885020508800008874
:10048000887808700000F8102040F81020204020E4
:10049000201020202020202020402020102020403C
:1004A00011241FBECFEFCDBFDFE5DEBF00E00CBFE4
:1004B00010E2A0E0B0E2E8E8FDE300E00BBF02C01C
:1004C00007900D92AA38B107D9F723E2AAE8B0E263
:1004D00001C01D92A133B207E1F70E940F1A0C94DC
:1004E000C21E8ECD04C06150710981099109611548
:1004F000710581059105B9F70895BF92CF92DF92FA
:10050000EF92FF920F931F93CF93DF931F92CDB77C
:10051000DEB700E016E06894FF24F3F8F801F682F5
:1005200064E070E080E090E0DDDFF801F58264E0F7
:1005300070E080E090E0D6DF0F2EFBE2BF2EF02DC2
:10054000B98280EA99E0FED6C12CD12C760100E474
:1005500012E42FE030E043E0BE016F5F7F4F80EA9E
:1005600099E01FD700E616E0FF24F394F801F68225
:10057000B982BE016F5F7F4F80EA99E02CD7F80106
:10058000F682E0EAF9E0818185FFFDCF80EA809381
:10059000A009E0EAF9E0818186FFFDCFE0EAF9E019
:1005A00080E481838081BE016F5F7F4F80EA99E0A4
:1005B00028D78BE28983BE016F5F7F4F80EA99E085
:1005C0000AD781E080936606E0EAF9E0818185FF41
:1005D000FDCF86EA8093A009E0EAF9E0818186FFF9
:1005E000FDCFE0EAF9E080E481838081BE016F5FA6
:1005F0007F4F80EA99E005D78BE28983BE016F5F68
:100600007F4F80EA99E0E7D681E080936606E0EAD2
:10061000F9E0818185FFFDCF88EC8093A009E0EAB5
:10062000F9E0818186FFFDCFE0EAF9E080E4818393
:100630008081BE016F5F7F4F80EA99E0E2D68BE256
:100640008983BE016F5F7F4F80EA99E0C4D681E065
:1006500080936606E0EAF9E0818185FFFDCF82EABA
:100660008093A009E0EAF9E0818186FFFDCFE0EA0E
:10067000F9E080E481838081BE016F5F7F4F80EA73
:1006800099E0BFD68BE28983BE016F5F7F4F80EA1E
:1006900099E0A1D681E080936606E0EAF9E08181E5
:1006A00085FFFDCF8FE28093A009E0EAF9E0818128
:1006B00086FFFDCFE0EAF9E080E481838081BE011E
:1006C0006F5F7F4F80EA99E09CD68BE28983BE0101
:1006D0006F5F7F4F80EA99E07ED681E08093660667
:1006E000E0EAF9E0818185FFFDCF88EF8093A009E2
:1006F000E0EAF9E0818186FFFDCFE0EAF9E080E4FD
:1007000081838081BE016F5F7F4F80EA99E079D657
:100710008BE28983BE016F5F7F4F80EA99E05BD6F1
:1007200081E080936606E0EAF9E0818185FFFDCFF4
:100730001092A009E0EAF9E0818186FFFDCFE0EAAE
:10074000F9E080E481838081BE016F5F7F4F80EAA2
:1007500099E057D68BE28983BE016F5F7F4F80EAB5
:1007600099E039D681E080936606E0EAF9E081817C
:1007700085FFFDCF81E28093A009E0EAF9E0818165
:1007800086FFFDCFE0EAF9E080E481838081BE014D
:100790006F5F7F4F80EA99E034D68BE28983BE0198
:1007A0006F5F7F4F80EA99E016D681E080936606FE
:1007B000E0EAF9E0818185FFFDCF81E88093A0091F
:1007C000E0EAF9E0818186FFFDCFE0EAF9E080E42C
:1007D00081838081BE016F5F7F4F80EA99E011D6EF
:1007E0008BE28983BE016F5F7F4F80EA99E0F3D58A
:1007F00081E080936606E0EAF9E0818185FFFDCF24
:1008000081E28093A009E0EAF9E0818186FFFDCFD3
:10081000E0EAF9E080E481838081BE016F5F7F4F71
:1008200080EA99E0EED58BE28983BE016F5F7F4F4E
:1008300080EA99E0D0D581E080936606E0EAF9E0AD
:10084000818185FFFDCF8FEA8093A009E0EAF9E07E
:10085000818186FFFDCFE0EAF9E080E48183808139
:10086000BE016F5F7F4F80EA99E0CBD50F90DF919B
:10087000CF911F910F91FF90EF90DF90CF90BF909D
:100880000895FF920F931F93CF93DF931F92CDB7DD
:10089000DEB7082FF62E142FCFD50F70006B8BE22A
:1008A0008983BE016F5F7F4F80EA99E094D581E034
:1008B00080936606E0EAF9E0918195FFFDCF009311
:1008C000A009E0EAF9E0818186FFFDCFE0EAF9E0E6
:1008D00080E481838081BE016F5F7F4F80EA99E071
:1008E00090D50F2D0F7702950F7000618BE28983F1
:1008F000BE016F5F7F4F80EA99E06DD581E0809304
:100900006606E0EAF9E0818185FFFDCF0093A0094A
:10091000E0EAF9E0818186FFFDCFE0EAF9E080E4DA
:1009200081838081BE016F5F7F4F80EA99E069D546
:100930000F2D0F708BE28983BE016F5F7F4F80EABE
:1009400099E049D581E080936606E0EAF9E081818B
:1009500085FFFDCF0093A009E0EAF9E0818186FFE1
:10096000FDCFE0EAF9E080E481838081BE016F5F22
:100970007F4F80EA99E045D58BE28983BE016F5FA6
:100980007F4F80EA99E027D581E080936506E0EA11
:10099000F9E0818185FFFDCF1093A009E0EAF9E03D
:1009A000818186FFFDCFE0EAF9E080E481838081E8
:1009B00081E080936606BE016F5F7F4F80EA99E019
:1009C00020D50F90DF91CF911F910F91FF90089547
:1009D0000F931F93CF93DF931F92CDB7DEB78AE8B3
:1009E00090E225D58ADD8BE28983BE016F5F7F4F60
:1009F00080EA99E0F0D481E080936606E0EAF9E0CD
:100A0000818185FFFDCF80E48093A009E0EAF9E0D1
:100A1000818186FFFDCFE0EAF9E080E48183808177
:100A2000BE016F5F7F4F80EA99E0EBD400E00AC01F
:100A300040E0612F802F25DF1F5F1038C9F70F5F5F
:100A4000043011F010E0F4CF0F90DF91CF911F919F
:100A50000F910895FF920F931F93CF93DF938823F5
:100A60004CF1603238F5D42FC82FF62EF694F69458
:100A7000F69470E088E0F89E60197109112481E015
:100A800090E08C0102C0000F111F6A95E2F76C2FF5
:100A90008F2DE0D4D13021F028F0D23031F006C0D3
:100AA000802B04C00095802301C08027482F6C2F25
:100AB0008F2DE7DEDF91CF911F910F91FF90089569
:100AC000C9C40895FC0191819923ECF780810895B0
:100AD0004F925F926F927F928F929F92AF92BF924E
:100AE000EF92FF920F931F93CF937C014A015B011A
:100AF00028013901FC01848182FF16C0D901C80197
:100B0000689412F8B695A795979587951694D1F79E
:100B1000B901A801032E36E176956795579547955B
:100B20003A95D1F7302D15C0D901C801689413F852
:100B3000B695A795979587951694D1F7B901A80111
:100B4000032E37E176956795579547953A95D1F7F6
:100B5000302D88159905AA05BB0508F4A6C0841692
:100B60009506A606B70608F4A2C0F701848182FDA7
:100B700004C0880C991CAA1CBB1CC301B201A501AE
:100B800094010E94881A2F3F31054105510508F450
:100B900090C08FEF90E0A0E0B0E0C9EF05C028174B
:100BA00039074A075B0758F0880F991FAA1FBB1F18
:100BB000CD3F0CF48160CF5FC73089F74FC0CC23A5
:100BC0000CF04CC0D501C401880F991FAA1FBB1F90
:100BD000880F991FAA1FBB1F880F991FAA1FBB1F31
:100BE000481A590A6A0A7B0ACE3FF4F48DEF9FEF48
:100BF0008C1B9109C7FD939504C0440C551C661CC1
:100C0000771C8A95D2F7D501C401B695A79597951B
:100C10008795BC01CD01640D751D861D971DA5012D
:100C200094010E94881A37C083E08C0FA5019401BB
:100C300004C0220F331F441F551F8A95D2F7DA01D3
:100C4000C901B695A79597958795BC01CD01640D0F
:100C5000751D861D971D0E94881A1DC083E08C0F8C
:100C6000A501940104C0220F331F441F551F8A950C
:100C7000D2F7DA01C901B695A79597958795BC017A
:100C8000CD01640D751D861D971D0E94881A215087
:100C9000310941095109832F8F70C295C07FC82B3C
:100CA000F701C783268381E018C080E016C080E08A
:100CB00014C0D501C401880F991FAA1FBB1F880F3C
:100CC000991FAA1FBB1F880F991FAA1FBB1F481A75
:100CD000590A6A0A7B0AC9EF89CFCF911F910F91F8
:100CE000FF90EF90BF90AF909F908F907F906F900C
:100CF0005F904F9008950F931F93CF93DF93EC0174
:100D00008B01009709F4E6C0803C910521F460E175
:100D100080E02AD4DFC0C03881E0D80721F462E047
:100D200080E022D4D7C0C115E1E0DE0721F461E004
:100D300080E01AD4CFC0C038F3E0DF0721F461E0CF
:100D400081E012D4C7C0C03983E0D80721F461E044
:100D500082E00AD4BFC0C115E2E0DE0721F462E000
:100D600081E002D4B7C0C034F2E0DF0721F462E0D2
:100D700082E0FAD3AFC0C03283E0D80721F464E048
:100D800082E0F2D3A7C0C115E8E0DE0721F461E0FC
:100D900083E0EAD39FC0C115F9E0DF0721F461E0E9
:100DA00084E0E2D397C0C1158AE0D80721F461E05E
:100DB00085E0DAD38FC0C115EBE0DE0721F461E0F6
:100DC00086E0D2D387C0C034F8E0DF0721F462E0C8
:100DD00083E0CAD37FC0C03489E0D80721F462E041
:100DE00084E0C2D377C0C034EAE0DE0721F462E0D9
:100DF00085E0BAD36FC0C039F8E0DF0721F464E0C2
:100E000083E0B2D367C0C03989E0D80721F464E039
:100E100084E0AAD35FC0C039EAE0DE0721F464E0D1
:100E200085E0A2D357C0C039FBE0DF0721F464E0BE
:100E300086E09AD34FC0C03C88E0D80721F468E030
:100E400083E092D347C0C03CE9E0DE0721F468E0CC
:100E500084E08AD33FC0C03AF8E0DF0721F460E1C4
:100E600083E082D337C0C03A89E0D80721F460E13B
:100E700084E07AD32FC0C03AEAE0DE0721F460E1D3
:100E800085E072D327C0C03AFBE0DF0721F460E1C0
:100E900086E06AD31FC0C03B88E0D80721F460E237
:100EA00083E062D317C0C03BE9E0DE0721F460E2D3
:100EB00084E05AD30FC0C038F4E0DF0721F460E4C7
:100EC00083E052D307C0C03A84E0D80719F460E445
:100ED00085E04AD38D818F738D83F801958184815C
:100EE000892B9681911198E0892B8D83F80140819F
:100EF00051816281738100E814E82EE130E0CE0177
:100F0000E7DD9C8198609C839C8190619C83DF914C
:100F1000CF911F910F910895CF92DF92EF92FF92A0
:100F20000F931F93CF93DF93EC01D901C801B695BE
:100F3000A79597958795481759076A077B0778F40F
:100F40006A017B01CC0CDD1CEE1CFF1CC901B80141
:100F5000A70196010E94881A2150310902C020E0A1
:100F600030E0832F8F708F832E83DF91CF911F917D
:100F70000F91FF90EF90DF90CF900895DF92EF9266
:100F8000FF920F931F93CF93DF931F92CDB7DEB7DE
:100F90007C018B01009709F4B2C1803C910521F4DA
:100FA00060E180E0E1D2ABC180E8E81681E0F806BC
:100FB00021F462E080E0D8D2A2C1E114E1E0FE06B3
:100FC00021F461E080E0D0D29AC1F0E8EF16F3E0BE
:100FD000FF0621F461E081E0C7D291C130E9E31658
:100FE00033E0F30621F461E082E0BED288C1E1146F
:100FF00082E0F80621F462E081E0B6D280C1E0E44C
:10100000EE16E2E0FE0621F462E082E0ADD277C1A6
:10101000F0E2EF16F3E0FF0621F464E082E0A4D2F0
:101020006EC1E11438E0F30621F461E083E09CD264
:1010300066C1E11489E0F80621F461E084E094D20D
:101040005EC1E114EAE0FE0621F461E085E08CD2A5
:1010500056C1E114FBE0FF0621F461E086E084D292
:101060004EC130E4E31638E0F30621F462E083E099
:101070007BD245C180E4E81689E0F80621F462E0FD
:1010800084E072D23CC1E0E4EE16EAE0FE0621F410
:1010900062E085E069D233C1F0E9EF16F8E0FF06BF
:1010A00021F464E083E060D22AC130E9E31639E03C
:1010B000F30621F464E084E057D221C180E9E81608
:1010C0008AE0F80621F464E085E04ED218C1E0E938
:1010D000EE16EBE0FE0621F464E086E045D20FC197
:1010E000F0ECEF16F8E0FF0621F468E083E03CD274
:1010F00006C130ECE31639E0F30621F468E084E041
:1011000033D2FDC080EAE81688E0F80661F460E1B9
:1011100083E02AD2E0EAF8E084818F7E8483F801BC
:10112000248122504CC0F0EAEF16F9E0FF0621F4CA
:1011300060E184E019D2E3C030EAE3163AE0F30656
:1011400021F460E185E010D2DAC080EAE8168BE095
:10115000F80621F460E186E007D2D1C0E0EBEE169C
:10116000E8E0FE0621F460E283E0FED1C8C0F0EBC7
:10117000EF16F9E0FF0621F460E284E0F5D1BFC08C
:1011800030E8E31634E0F30621F460E483E0ECD1C8
:10119000B6C080EAE81684E0F80621F460E485E051
:1011A000E3D1ADC0F70184818F7E8483FB0124816C
:1011B0002250C701F0EAEF16F8E0FF0649F48091EB
:1011C0004E0684FDA5C00F2EF1E1DF2EF02DA4C048
:1011D000803B38E0930791F0803AE9E09E0749F4BC
:1011E00030916E0634FD9BC00F2EF9E1DF2EF02DFD
:1011F00016C0803BF9E09F07F1F004C00F2EF5E127
:10120000DF2EF02D803A3AE0930749F480918E0664
:1012100084FD8AC00F2EF1E2DF2EF02D15C0803A3A
:101220009B4091F48091AE0684FD0AC00F2EF9E236
:10123000DF2EF02D09C00F2EFDE1DF2EF02D04C0B2
:101240000F2EFDE2DF2EF02DED2DE695E695E695CD
:1012500030E2E39FF0011124FA5F3D2D377081E009
:1012600090E0032E02C0880F991F0A94E2F7818351
:10127000223010F040E001C040E4DF015096A30F9F
:10128000B11D9FB79983F89439812C9127702C93C5
:101290009C91942B9C933FBF8583F7018581806C43
:1012A0008583F80184818D7F813029F4F701858160
:1012B0008260858304C0F70185818D7F8583F80175
:1012C0008581882329F0F70185818460858304C0A6
:1012D000F70185818B7F8583F8014081518162818F
:1012E000738100E814E82EE130E0C70115DEF70154
:1012F0008481886084838481806184831AC0F7013B
:1013000084818F7E8483F80124812250C70160CFBD
:101310000F2EF5E1DF2EF02D80EA98E06ACF0F2E38
:10132000FDE1DF2EF02D7BCF0F2EF5E2DF2EF02D2D
:101330008BCF0F90DF91CF911F910F91FF90EF9086
:10134000DF900895803A28E0920721F460E183E07D
:101350000BC10895803B28E0920721F460E283E00E
:1013600003C10895803A29E0920721F460E184E006
:10137000FBC00895803B29E0920721F460E284E0FD
:10138000F3C00895803A2AE0920721F460E185E0F5
:10139000EBC00895803A9B4019F460E186E0E4C018
:1013A00008950F931F93CF93DF9300D000D0CDB754
:1013B000DEB709831A832B833C834D831E82BE01D3
:1013C0006F5F7F4FDBDD2696CDBFDEBFDF91CF9114
:1013D0001F910F910895FB018081E82FE695E69516
:1013E000E69540E2E49FF0011124FA5F877021E066
:1013F00030E0A90102C0440F551F8A95E2F74683E9
:101400000895FB018081E82FE695E695E69540E298
:10141000E49FF0011124FA5F877021E030E0A90118
:1014200002C0440F551F8A95E2F7458308958093C3
:101430008A2290938B22089520918A2230918B22C8
:1014400090E8899F200D311D1124F901E60FF11D4F
:101450004083089520918A2230918B2290E8899FC1
:10146000200D311D1124F901E60FF11D8081089531
:10147000FF920F931F93CF93DF93E42FF0E0E80FD9
:10148000F11DE138F1051CF0C0E84C2F481B442346
:1014900009F44AC0D62FD695D695D69570E098E037
:1014A000D99F601971091124E1E0F0E0DF0102C069
:1014B000AA0FBB1F6A95E2F7FA2E213021F098F0AF
:1014C000223019F131C0C42F1FEF180F012F0C0F5C
:1014D000602F8D2FF5DA4F2D482B602F8D2FD1D90E
:1014E000C150A1F721C0C42F1FEF180FFA2EF0949E
:1014F000012F0C0F602F8D2FE3DA4F2D4823602F23
:101500008D2FBFD9C150A1F70FC0C42F1FEF180FE7
:10151000012F0C0F602F8D2FD3DA4F2D4827602F0E
:101520008D2FAFD9C150A1F7DF91CF911F910F91AE
:10153000FF900895FF920F931F93CF93DF93222381
:1015400069F0F42E182FC22FDFEFD60F6D2F6C0F1E
:10155000202F4F2D812F8CDFC150C1F7DF91CF910C
:101560001F910F91FF900895CF93DF931F92CDB7F6
:10157000DEB79FB79983F8949981E82FF0E0E0599E
:10158000FF4F60958081682360839FBF0F90DF913C
:10159000CF910895AF92BF92CF92DF92EF92FF92D8
:1015A0000F931F93CF93DF93C82FE62EB42E6901BC
:1015B00000E0F901248143816B2D8E2DBBDFF60104
:1015C0008081811139C08381282F26952695269503
:1015D000877009F02F5FF601A4808C2F90E0358191
:1015E000831B91092A9D90011124829FA001839F52
:1015F000500D929F500D112401811281040F151F6F
:10160000F601F380FF20A1F0D0E0C0E08E2D8C0F1A
:101610009C2F977021F4F801D4910F5F1F4FDD23A9
:101620001CF441E06B2D16DADD0FCF5FFC12EECF1C
:10163000B394AA94A110E4CFDF91CF911F910F91A1
:10164000FF90EF90DF90CF90BF90AF900895DF9222
:10165000EF92FF920F931F93CF93DF93D62E042F19
:101660007901EC01162F89918A3031F4F7018481D8
:101670008F5F080F1D2D09C08D3039F09701402F65
:10168000612F88DFF7018381180F88818111EBCFEB
:10169000DF91CF911F910F91FF90EF90DF90089510
:1016A000FC010396818392832FEF3FEF23833483E2
:1016B000858396838783908710820895FC01108626
:1016C00011860895CF93DF93EB01488159814F3FF5
:1016D0002FEF520721F4FC01A781B0850DC0DC017A
:1016E000139601C0DF011296ED91FC9113972081B2
:1016F000318142175307B0F71296ED91FC91139781
:10170000EA83FB83C483D583AC83BD831296CD93D8
:10171000DC93139788879987FC0120812F5F2083B2
:10172000DF91CF910895CF93DF93FC01A085B18520
:10173000C281D381848195818C839D83C481D5812D
:10174000828193818A839B8311968D919C911297BC
:10175000E817F90731F48481958111968D939C9354
:101760001297108611868C9181508C938C91DF9109
:10177000CF9108950F931F938B0171E1FC0170834A
:10178000319762E26083319723E32083012E000CBE
:10179000220B330B319700833197108331972083CD
:1017A00031971082319720E820833197108231974A
:1017B00022E02083319723E02083319724E02083A7
:1017C000319725E02083319726E02083319727E069
:1017D0002083319728E02083319729E020833197B7
:1017E00020E1208331977083319722E12083319764
:1017F00023E12083319724E12083319725E1208361
:10180000319726E12083319727E12083319728E122
:101810002083319729E12083319720E2208331977B
:1018200021E2208331976083319723E2208331972F
:10183000408331975083319726E22083319727E206
:101840002083319728E22083319729E22083319742
:1018500020E32083319721E3208387971F910F9105
:101860000895F894E0E7F0E083818A7F8383E0E0E5
:10187000F8E080E09AEF86A397A391E09683A0EA30
:10188000B0E012968C911297816012968C9390839F
:101890007894A091E722B091E8220D900DBE0D90B2
:1018A0000EBEFF91EF91DF91CF91BF91AF919F91CC
:1018B0008F917F916F915F914F913F912F911F91E8
:1018C0000F91FF90EF90DF90CF90BF90AF909F90DF
:1018D0008F907F906F905F904F903F902F901F90D0
:1018E0000F900FBE0F90089581E008950F920FB6EC
:1018F000F8940F921F9211242F923F924F925F9271
:101900006F927F928F929F92AF92BF92CF92DF920F
:10191000EF92FF920F931F932F933F934F935F93F9
:101920006F937F938F939F93AF93BF93CF93DF93E7
:10193000EF93FF93A091E722B091E8220DB60D92AC
:101940000EB60D9262D7A091E722B091E8220D90D9
:101950000DBE0D900EBEFF91EF91DF91CF91BF9123
:10196000AF919F918F917F916F915F914F913F9137
:101970002F911F910F91FF90EF90DF90CF90BF902C
:10198000AF909F908F907F906F905F904F903F901F
:101990002F901F900F900FBE0F9008950F920FB6CB
:1019A000F8940F921F9211242F923F924F925F92C0
:1019B0006F927F928F929F92AF92BF92CF92DF925F
:1019C000EF92FF920F931F932F933F934F935F9349
:1019D0006F937F938F939F93AF93BF93CF93DF9337
:1019E000EF93FF93A091E722B091E8220DB60D92FC
:1019F0000EB60D9207D5811108D7A091E722B091BC
:101A0000E8220D900DBE0D900EBEFF91EF91DF917B
:101A1000CF91BF91AF919F918F917F916F915F9186
:101A20004F913F912F911F910F91FF90EF90DF9079
:101A3000CF90BF90AF909F908F907F906F905F906E
:101A40004F903F902F901F900F900FBE0F901895C2
:101A5000CF93DF93EC01C6D4CE010E94B21AEC0101
:101A6000E9D5CE01DF91CF910895CF93DF93009711
:101A700031F0EC01B7D4CE010E944A1BDBD5DF91D7
:101A8000CF9108950FB6F8940F92FC01928D0F90AC
:101A90000FBE81E0911180E008950F931F93CF93C3
:101AA000DF93EC01042F1A8D4C8D4423B9F1011101
:101AB00016C050E08A819B810E94D31B2C8D8A81A5
:101AC0009B81820F911D8A839B832C813D8182178C
:101AD000930720F1888199818A839B831FC050E0FE
:101AE0008E819F810E94D31B8C8D90E09195819572
:101AF00091092E813F81280F391F2E833F83488112
:101B000059812417350730F42C813D81820F931FB2
:101B10008E839F83023011F4111111501F5F1A8FB1
:101B200080E0DF91CF911F910F910895FC01448DCA
:101B30004423A9F050E026813781240F351F2683E6
:101B40003783848195812817390720F0808191811E
:101B500086839783CB01668177810C94D31B08958C
:101B6000EF92FF920F931F93CF938C010FB6F894CF
:101B70000F92FC01C68D1C169CF48189811106C050
:101B80000FC0F8018189811105C00AC07801F1E117
:101B9000EF0EF11CC701F8D68111EFD7C15089F7BC
:101BA0008FEFF801868F0F900FBE0FB6F8940F924B
:101BB000C58D1C169CF48085811106C00FC0F801EC
:101BC0008085811105C00AC07801F8E0EF0EF11C94
:101BD000C701DAD68111D1D7C15089F78FEFF8014B
:101BE000858F0F900FBECF911F910F91FF90EF90B7
:101BF0000895EF92FF920F931F93CF93DF93FC0111
:101C0000362F892B09F448C0238D222309F446C0BE
:101C1000022F10E0448DE42EF12C8FEF9FEFB801DE
:101C20000E94741A6E157F0508F43AC0EF010FB6D2
:101C3000F8940F9260817181CB01249F800D911DDA
:101C4000112484839583128E62837383015011095A
:101C50000E9DC0010F9D900D1E9D900D1124860FAD
:101C6000971F868397838FEF858F868F31110AC0E8
:101C70008085882369F0CF01089686D6882341F0B5
:101C800035DE06C0CF0108960BDDCE01419608DD9A
:101C90000F900FBE81E005C080E003C080E001C06E
:101CA00080E0DF91CF911F910F91FF90EF90089509
:101CB0000F931F93CF93DF93282F362F882351F153
:101CC000682F70E08FEF9FEF0E94741A832F90E0CF
:101CD0006817790710F1239FC0011124813E4FEF4F
:101CE0009407F0F4D32FC22F4F96B2DE8C010097E9
:101CF000C9F0D11104C0FC018083918304C04F96C8
:101D0000F80180839183F801C38FD48F61E0C8010B
:101D100070DF08C000E010E005C000E010E002C085
:101D200000E010E0C801DF91CF911F910F9108955D
:101D3000AF92BF92CF92DF92EF92FF920F931F93D9
:101D4000CF93DF93CDB7DEB72597CDBFDEBF8C0134
:101D50006B014C835D83A22EB12C7C0188E0E80EE0
:101D6000F11C0FB6F8940F92F801928D838D98179D
:101D700018F0F2E0AF1215C04A2DB601C8018DDE91
:101D8000F8019189992339F0C8014196FDD588233E
:101D900021F0ACDD02C08111A9DD0F900FBE81E002
:101DA00046C08C819D81892B21F40F900FBE80E06D
:101DB0003EC0B11005C0CE010196A4D6BB24B39499
:101DC0000F900FBE0FD30FB6F8940F92F801858DC8
:101DD0008F3F09F4158EF801868D8F3F09F4168E1A
:101DE0000F900FBEBE016C5F7F4FCE01019695D65E
:101DF000811119C00FB6F8940F92F801928D0F90CF
:101E00000FBE838D98130BC06C817D81C70163D594
:101E1000C801A6DE0FD48111A4CF68DDA2CFC8010E
:101E20009FDE08D49ECFC8019BDE04D480E02596B7
:101E3000CDBFDEBFDF91CF911F910F91FF90EF904B
:101E4000DF90CF90BF90AF900895AF92BF92CF92A6
:101E5000DF92EF92FF920F931F93CF93DF93CDB753
:101E6000DEB72597CDBFDEBF8C015B014C835D8360
:101E7000E12C6C0181E1C80ED11C0FB6F8940F92D1
:101E8000F801F28CFF2091F0B501C8014FDEFA9401
:101E9000F801F28E8085882329F0C801089674D550
:101EA000811124DD0F900FBE81E045C08C819D81A2
:101EB000892B21F40F900FBE80E03DC0E11005C0DA
:101EC000CE0101961FD6EE24E3940F900FBE8AD266
:101ED0000FB6F8940F92F801858D8F3F09F4158E97
:101EE000F801868D8F3F09F4168E0F900FBEBE014C
:101EF0006C5F7F4FCE01019610D6811113C0C801CF
:101F0000C1DD882359F06C817D81C601E4D4C8010C
:101F100027DE90D38111B1CFE9DCAFCFC80120DE3D
:101F200089D3ABCFC8011CDE85D3C801ABDD8823C4
:101F300009F4A3CF80E02596CDBFDEBFDF91CF911E
:101F40001F910F91FF90EF90DF90CF90BF90AF90D7
:101F50000895DF92EF92FF920F931F93CF93DF9339
:101F6000CDB7DEB72597CDBFDEBF8C016C837D83F7
:101F7000D12C7C0181E1E80EF11C0FB6F8940F9290
:101F8000F801828D882371F08150828F80858823AB
:101F900029F0C8010896F8D48111A8DC0F900FBE73
:101FA00081E045C08C819D81892B21F40F900FBE6B
:101FB00080E03DC0D11005C0CE010196A3D5DD243F
:101FC000D3940F900FBE0ED20FB6F8940F92F80173
:101FD000858D8F3F09F4158EF801868D8F3F09F4AA
:101FE000168E0F900FBEBE016C5F7F4FCE01019623
:101FF00094D5811113C0C80145DD882359F06C8147
:102000007D81C70168D4C801ABDD14D38111B5CF80
:102010006DDCB3CFC801A4DD0DD3AFCFC801A0DD07
:1020200009D3C8012FDD882309F4A7CF80E02596C6
:10203000CDBFDEBFDF91CF911F910F91FF90EF9049
:10204000DF900895CF93DF93EC010FB6F8940F92D1
:102050008D8D8F3F09F41D8E8E8D8F3F09F41E8E5E
:102060000F900FBE8A8D811103C0CE01419644D4DA
:10207000CE0176DDDF91CF910895E091A622F09117
:10208000A7228081811107C08FEF9FEF80938F225D
:10209000909390220895E091A622F091A7220580C6
:1020A000F681E02D8081918180938F229093902200
:1020B0000895CAEBD2E288818230E8F317DCFBCFC7
:1020C0000F931F93CF93DF93EC010091982210910F
:1020D00099228091E7229091E822029624DBC00F9A
:1020E000D11FE091E722F091E822C283D383C01789
:1020F000D10760F46091E7227091E8228091A422D8
:102100009091A5226E5F7F4FDDDA16C06091E722C5
:102110007091E8228091A6229091A7226E5F7F4F56
:10212000D1DA80918F2290919022C817D90720F49C
:10213000C0938F22D0939022DF91CF911F910F9166
:1021400008954F925F926F927F928F929F92AF927B
:10215000BF92CF92DF92EF92FF920F931F93CF9394
:10216000DF934C016B015A012901CA0171DC3C016A
:10217000892B09F4F8C086E290E06ADCEC01892B37
:1021800059F06F8A788E81E0A81AB108A60CB71CA6
:10219000C114D10421F41FC0C30167DCE4C0D6011F
:1021A0008C91898F8C918823A1F0AE01465E5F4FA0
:1021B000F6013196B8E0CB0ED11CCF012191DA01A6
:1021C0002D93AD01DC018C91882319F0CE16DF062A
:1021D000A1F718A201C0198E053008F004E00E8B9B
:1021E0006E01B2E0CB0ED11CC60168DACE010C96AE
:1021F00065DAC887D98785E090E0801B91098C87D4
:102200009D87CA8BDB8B84E0FE01B196DF011D92B6
:102210008A95E9F71DA2A201B401C501ABDA888352
:102220009983E114F10419F0F701C083D1830FB64B
:10223000F8940F9280919A228F5F80939A228091D6
:10224000E7229091E822892B69F5C093E722D09389
:10225000E82280919A228130A9F50AEB12E20F2E32
:10226000F7EEEF2EF2E2FF2EF02DC80119DA075F2C
:102270001F4F0E151F05C9F781EB92E211DA88EAAC
:1022800092E20EDA8BE992E20BDA81EB92E2809332
:10229000A6229093A72288EA92E28093A4229093A8
:1022A000A52210C08091962281110CC0E091E722F6
:1022B000F091E82296898E89891720F0C093E72251
:1022C000D093E822809191228F5F809391228E8912
:1022D00090919722981710F48093972290E0FC0138
:1022E000EE0FFF1FEE0FFF1FEE0FFF1F8E0F9F1F42
:1022F000FC01E654FD4D0180F281E02DEC83FD836D
:10230000848195818E839F83A481B5811296CD921D
:10231000DC921397C482D582EE89F0E0CF01880F5A
:10232000991F880F991F880F991FE80FF91FE6540E
:10233000FD4DEA87FB8780818F5F80830F900FBE02
:1023400080919622882359F0E091E722F091E822CB
:1023500096898E89981728F4C9DA81E005C081E052
:1023600003C081E001C08FEFDF91CF911F910F91EA
:10237000FF90EF90DF90CF90BF90AF909F908F90A5
:102380007F906F905F904F900895EF92FF920F9320
:102390000F2EFDE8EF2EF2E2FF2EF02D00E020E000
:1023A00030E045E550E069E170E289E590E1C9DEA1
:1023B000813091F499D5813079F4F8948FEF9FEFC3
:1023C00080938F229093902281E0809396221092A6
:1023D00098221092992245DA80910D200F91FF905A
:1023E000EF90089580918C228F5F80938C220895C6
:1023F0000FB6F8940F9280919822909199220F90A5
:102400000FBE08950F931F93CF93DF9380918C227B
:10241000811101C1C0919822D09199228E010F5F44
:102420001F4F009398221093992201151105B1F4C2
:102430008091A6229091A7222091A4223091A522DA
:102440002093A6223093A7228093A4229093A522C2
:10245000809192228F5F809392220FDE80918F2253
:10246000909190220817190710F480E0B8C080E01E
:10247000E091A622F091A7229081911107C02FEF41
:102480003FEF20938F2230939022A9C0E091A622A3
:10249000F091A7220580F681E02D0680F781E02DDE
:1024A000228133810217130728F420938F2230935F
:1024B000902295C0A285B3852481358146815781BC
:1024C000E9014C835D832681378144815581E9018F
:1024D0004A835B83AF014E5F5F4F11962D913C9114
:1024E00012972417350731F42681378111962D93E1
:1024F0003C931297128613869C9191509C93A489C9
:10250000B589109719F12685378560897189E901A8
:102510006C837D832089318966857785E9016A83AB
:102520007B8311966D917C9112979F01245F3F4FA1
:102530006217730731F42089318911962D933C93EA
:102540001297148A158A9C9191509C932689909198
:102550009722921710F42093972230E0D901AA0F06
:10256000BB1FAA0FBB1FAA0FBB1F2A0F3B1FD901FE
:10257000A654BD4D11960D90BC91A02DA483B5839A
:1025800014962D913C9115972683378314962D919F
:102590003C911597E9014A835B8314964D935C93B4
:1025A0001597A689B0E09D01220F331F220F331F1C
:1025B000220F331FA20FB31FA654BD4DA287B387AE
:1025C0009C919F5F9C93A091E722B091E82226897D
:1025D00056969C91291708F44BCF81E049CFE091A2
:1025E000E722F091E822268930E0F901EE0FFF1F83
:1025F000EE0FFF1FEE0FFF1F2E0F3F1FF901E654D6
:10260000FD4D9081923008F081E0909193229923C2
:1026100061F081E00AC08091942290919522019608
:10262000809394229093952280E0DF91CF911F9127
:102630000F9108951F93CF93DF930FB6F8940F92E5
:1026400080918C22815080938C2280918C228111E8
:10265000C3C080919A2281119BC0C1C0DB01159635
:10266000ED91FC9116970680F781E02DA489B5893C
:102670008685978520893189EC012C833D8380896B
:10268000918926853785EC012A833B83CF010C96FF
:1026900011962D913C9112972817390731F48089B2
:1026A000918911968D939C931297148A158A8C9117
:1026B00081508C93A285B385848195812681378151
:1026C000EC012C833D838681978124813581EC0147
:1026D0002A833B839F012E5F3F4F11968D919C91E2
:1026E00012978217930731F48681978111968D9303
:1026F0009C931297128613868C9181508C938689B5
:1027000090919722981710F48093972290E0DC0123
:10271000AA0FBB1FAA0FBB1FAA0FBB1F8A0F9B1FAD
:10272000DC01A654BD4D11960D90BC91A02DA48343
:10273000B58314968D919C911597868397831496F3
:102740008D919C911597EC012A833B8314962D93D0
:102750003C931597A689B0E0CD01880F991F880F8B
:10276000991F880F991FA80FB91FA654BD4DA287A6
:10277000B3878C918F5F8C93A091E722B091E82270
:10278000968956968C91981740F04093932205C0F5
:10279000E0E0F0E06BE972E241E0DB018C91811155
:1027A0005DCFEF2B09F069DCC0919422D091952286
:1027B000209759F011E026DE811110939322219782
:1027C000D1F710929422109295228091932288231F
:1027D00029F08CD881E003C080E001C080E00F9038
:1027E0000FBEDF91CF911F910895CF93DF93EC013E
:1027F000892B39F0F7DD60E0CE0162DC1BDF81114F
:1028000001C074D8DF91CF91089580918C228823E4
:1028100021F081E0809393220895109293222091D9
:102820009722822F90E0FC01EE0FFF1FEE0FFF1F9B
:10283000EE0FFF1FE80FF91FE654FD4D30813111F7
:1028400011C02150822F90E0FC01EE0FFF1FEE0F10
:10285000FF1FEE0FFF1FE80FF91FE654FD4D3081FB
:10286000332379F3AC01440F551F440F551F440F18
:10287000551F480F591FDA01A654BD4D1196ED9111
:10288000FC9112970280F381E02D1196ED93FC9359
:10289000129743545D4DE417F50729F442815381A3
:1028A000FD0141835283FC01EE0FFF1FEE0FFF1F5E
:1028B000EE0FFF1F8E0F9F1FFC01E654FD4D0180A0
:1028C000F281E02D868197818093E7229093E82220
:1028D000209397220895CF93DF93EB016091E72235
:1028E0007091E822645F7F4F0E94620B61E0CE012D
:1028F000E7DBDF91CF9108950F931F93CF93DF9381
:10290000FC018B01A181B2818091E7229091E822A4
:10291000EC01AE87BF878091E7229091E822149660
:102920002D913C911597EC01288B398B14968D9144
:102930009C9115972091E7223091E822245F3F4F28
:10294000EC012A833B832091E7223091E822245F27
:102950003F4F14962D933C931597A091E722B09189
:10296000E8225496ED93FC93559790819F5F908356
:10297000442311F00FEF1FEF642FC801A1DBDF919B
:10298000CF911F910F910895CF93DF93DC0115969E
:10299000ED91FC9116970680F781E02DA489B58909
:1029A000C685D785808991898C839D83C089D1898B
:1029B000868597858A839B839F01245F3F4F11966D
:1029C0008D919C9112978217930731F48089918998
:1029D00011968D939C931297148A158A8C9181502D
:1029E0008C9380918C22811160C0A285B385C481B3
:1029F000D581868197818C839D83C681D78184818F
:102A000095818A839B839F012E5F3F4F11968D9105
:102A10009C9112978217930731F4868197811196C2
:102A20008D939C931297128613868C9181508C9370
:102A3000868990919722981710F48093972290E0BE
:102A4000DC01AA0FBB1FAA0FBB1FAA0FBB1F8A0F57
:102A50009B1FDC01A654BD4D11960D90BC91A02D7D
:102A6000A483B58314968D919C9115978683978343
:102A70001496CD91DC9115972A833B8314962D9360
:102A80003C931597A689B0E0CD01880F991F880F58
:102A9000991F880F991FA80FB91FA654BD4DA28773
:102AA000B3878C918F5F8C931CC04BE952E2DA01A3
:102AB0001196CD91DC911297C687D7878C819D8125
:102AC000808B918B8C819D81DC0112962D933C93A0
:102AD00013972C833D83448B558BDA018C918F5F48
:102AE0008C93A091E722B091E822968956968C911A
:102AF000891720F481E08093932201C080E0DF9168
:102B0000CF91089520919222FC0120832091982258
:102B1000309199222183328308950FB6F8940F9251
:102B20002091982230919922DC0111964D915C916F
:102B30001297E0919222FC91FE1741F0241735077D
:102B400028F0FB011082118281E014C0241B350B98
:102B5000DB014D915C912417350740F4FB01421BCA
:102B6000530B40835183CEDF80E004C0FB01108211
:102B7000118281E00F900FBE089581E0809393222F
:102B80000895FC01628373838087918746175707F6
:102B900090F0421B530B8485958548175907E0F444
:102BA000BF016E5F7F4F8091EF229091F0220E94D3
:102BB000620B80E008954217530718F462177307F9
:102BC00068F4BF016E5F7F4F8091F1229091F222F5
:102BD0000E94620B80E0089581E0089581E00895ED
:102BE000EF92FF920F931F93CF93DF93EC018B0132
:102BF0007A0108C08C859D85080F191FE889F9891D
:102C0000CE0119956C857D85600F711F9801A70114
:102C1000CE01B7DF8111EECFDF91CF911F910F91E0
:102C2000FF90EF900895EF92FF920F931F93CF9331
:102C3000DF938C017B01E091F122F091F22205807B
:102C4000F681E02DC681D781CE0102960E94930BBA
:102C50008A8982FF05C0A701B801CE01C1DF02C089
:102C60008E7F8A8BE889F989CE011995DF91CF9102
:102C70001F910F91FF90EF9008950F931F93CF93A3
:102C8000DF938C01B5DBEC018091E9229091EA227F
:102C9000C817D90730F5E091F122F091F222808136
:102CA000882379F00580F681E02D6FEF7FEF80813A
:102CB0009181B9DFE091F122F091F22280818111BE
:102CC000F1CF8091EF229091F0228093F1229093A6
:102CD000F222E093EF22F093F02281E0F80180836A
:102CE00002C0F8011082C093E922D093EA22CE01FB
:102CF000DF91CF911F910F910895CF93DF9300D073
:102D000000D0CDB7DEB7CE0101965C01082F1B2D98
:102D1000E091F122F091F2228081882309F4A9C088
:102D20000580F681E02DE080F1805CDBC501A5DF48
:102D30006C018981811117C0CE14DF0428F07ADC80
:102D4000B601C70170DF88C040E0B7016C197D098A
:102D50008091ED229091EE2275D96CDC81117CC0BE
:102D60000E94760C79C066DC77C0898188230CF4D8
:102D700073C0EC80FD80D7011A968D919C911B97B2
:102D8000892B21F0C70102960E94930BCE01069673
:102D900074DF6C01E9818E2FEE0F990BAA0BBB0B30
:102DA000FC013197E930F10508F056C08827E25060
:102DB000FF4F8F4FCFC3F70182898160828B2A81B9
:102DC0003B8164857585620F731FA601C701D9DE3B
:102DD000882309F441C0D70152968C91529782FF03
:102DE0000CC06A817B811C968D919C911D97680F08
:102DF000791FA601C701F4DE03C08E7FF701828B25
:102E0000D7015096ED91FC915197C701199524C0B7
:102E1000F70182898E7F828B1FC0D70152968C91D9
:102E20005297816052968C9352976A817B811C964F
:102E30006D937C931D976C0D7D1D9601A601C701B6
:102E4000A0DE0AC0F701828981FD04C0C7010E948B
:102E5000350D02C08E7F828B40E050E0602F712FD5
:102E60008091ED229091EE220E94250F81117DCF5D
:102E70004FCFB8DAC50101DF6C018981811173CFB1
:102E8000E091EF22F091F022808141E0811140E059
:102E9000E12CF12C5ACF0FB6F8940F928091ED22CD
:102EA0009091EE22892BE9F48CEF92E20E94500B74
:102EB00083EF92E20E94500B8CEF92E28093F1221A
:102EC0009093F22283EF92E28093EF229093F0228C
:102ED00040E065E08AE00E94580E8093ED229093D6
:102EE000EE220F900FBE0895EF92FF920F93D3DF63
:102EF0008091ED229091EE22892B89F00F2EFBEE2E
:102F0000EF2EF2E2FF2EF02D03E020E030E045E569
:102F100050E06EE170E28DE796E113D901C080E0E8
:102F20000F91FF90EF900895CF93DF93FC0120E085
:102F300030E0C62FD0E0DE01022E02C0B595A79585
:102F40000A94E2F7A0FD508B2F5F3F4F3196283057
:102F5000310589F740FF0AC041FF03C0FC016583CA
:102F600002C0FC016683FC01618302C0FC01628334
:102F7000DF91CF91089543E050E061E080EE97E06B
:102F8000D3DF43E050E062E080EE97E0CDDF43E046
:102F900050E060E180E696E0C7DF41E050E460E2A7
:102FA00080E696E0C1DF40E05BE160E280E896E029
:102FB000BBDF40E05BE162E080EA96E0B5DF40E045
:102FC0005BE164E080EA96E0AFDF43E050E062E07E
:102FD00080E696E0A9DF43E050E068E080E696E016
:102FE000A3DF43E050E068E080EA96E09DDF43E045
:102FF00050E061E080E696E097DF43E050E068E073
:1030000080E096E091DF41E050E060E180E896E00A
:103010008BDF43E050E062E080E696E085DF43E04E
:1030200050E068E080E696E07FDF40E050E064E05A
:1030300080E696E079DF43E050E060E180EA96E0E8
:1030400073DF40E050E061E080E096E06DDF40E05B
:1030500050E064E080E096E067DF40E050E062E04E
:1030600080E296E061DF43E050E068E080E496E0D3
:103070005BDF40E050E064E080E496E055DF43E051
:1030800050E068E080E696E04FDF40E050E064E02A
:1030900080E696E049DF43E050E068E080E896E0B3
:1030A00043DF40E050E064E080E896E03DCF0895E3
:1030B00004C061507109810991096115710581058B
:1030C0009105B9F708958230910541F0843091055A
:1030D00011F0019731F48DE290E2089584E390E2DB
:1030E000089586E290E208958230910591F02CF4E3
:1030F0000097A9F0019739F00FC08330910579F05E
:10310000049721F009C082E090E0089580E090E00B
:10311000089584E090E0089580E090E0089581E0D3
:1031200090E0089505E010E0C0E0D6E08091152021
:1031300090911620009731F001978093152090937D
:1031400016203EC06AE070E080912B2390912C23E2
:103150000E94A90F8130A1F580910523909106234B
:10316000C3DF80930523909306238230910561F19C
:103170008430910519F08130910519F423E030E095
:1031800002C02AE030E020931520309316208230D0
:10319000910539F08430910511F0019721F482E016
:1031A00003C084E001C081E08C8320E040E050E077
:1031B00060E070E080912B2390912C230E94980E68
:1031C00082E390E012DBB2CF00931520109316201B
:1031D000E8CFEF92FF920F931F93CF93DF93CDB77A
:1031E000DEB7C058D109CDBFDEBFF0901520E0900A
:1031F00016201091092300910A23809105239091B4
:10320000062361DF2BE033E23F932F93EF92FF928F
:103210000F931F939F938F938BE390E29F938F93D2
:103220001F9280E88F938E010F5F1F4F1F930F93A4
:10323000CCD226E030E240E060E0C8010E94270BDB
:10324000CDBFDEBFC058DF4FCDBFDEBFDF91CF9116
:103250001F910F91FF90EF9008951092A7088CE0B6
:103260008093A6081092A30883E08093A50888E1C4
:103270008093A40808950F931F93CF93DF93CBE01F
:10328000D3E200E113E280EA98E00E9462058A300E
:1032900021F08993C017D107B1F76BE073E28091F9
:1032A00017209091182088D2892BD9F4809105237A
:1032B000909106230397A9F083E090E08093052383
:1032C0009093062381E090E0809307239093082356
:1032D0008AE090E0809315209093162081E08093FF
:1032E0000406DF91CF911F910F91089500E216E03F
:1032F00055245A940F2EF0EAEF2EF6E0FF2EF02D13
:103300000F2EF3E0AF2EB12CF02D0F2EC12CF6E0D6
:10331000DF2EF02D4424439488248394912C6894C8
:10332000332431F80F2EF4E66F2E712CF02D6AE065
:1033300070E080912B2390912C230E94A90F813063
:1033400009F064C0F80150821482548262E070E097
:1033500080E090E0ADDEF801148210826BEF70E047
:1033600080E090E0A5DE67E270E080E090E0A0DE23
:10337000C0E0D0E00AC064E170E080E090E098DE58
:103380002196C436D10509F445C0F801808580FD39
:10339000F2CFC0930923D0930A232A9780F4809117
:1033A000052390910623892B51F480920523909256
:1033B0000623A0921520B0921620F60134825BDF1E
:1033C00008DFF701808581FD16C08091052390916B
:1033D0000623039781F0A0920523B09206238AE08A
:1033E00090E08093152090931620F601448210926D
:1033F00007231092082320E040E050E060E070E0F6
:1034000080912B2390912C230E94980E85E090E0D0
:10341000ECD98DCF6092092370920A23D0CFEF921E
:10342000FF920F93CF93A7DDC7E0C093A2000E9445
:10343000E80488E0809345068093410684E0809309
:1034400046068093420609DF6EE070E280EA98E06B
:103450000E947B0681E080932106C093000680E1F4
:103460008093850626E030E240E060E087E790E266
:103470000E94270B64E080E00E94B40AE0E2F4E0DE
:10348000818180FDFDCFE12CF12C01E020E030E0D6
:1034900048EE53E06CE270E282E998E10E94A110EC
:1034A00000E020E030E048EE53E06CE270E286E7B6
:1034B00099E10E94A11043E060E081E00E94580E73
:1034C00080932B2390932C2320E040E050E060E099
:1034D00070E00E94980E0E94C51180E090E0CF91AC
:1034E0000F91FF90EF900895AA1BBB1B51E107C0FD
:1034F000AA1FBB1FA617B70710F0A61BB70B881F84
:10350000991F5A95A9F780959095BC01CD01089512
:10351000A1E21A2EAA1BBB1BFD010DC0AA1FBB1FD7
:10352000EE1FFF1FA217B307E407F50720F0A21B49
:10353000B30BE40BF50B661F771F881F991F1A94B6
:1035400069F760957095809590959B01AC01BD01E0
:10355000CF010895EE0FFF1F881F8BBF0790F691D4
:10356000E02D19940F931F93CF93DF938230910531
:1035700010F482E090E0E0912F23F091302320E0DE
:1035800030E0A0E0B0E0309719F140815181028134
:10359000138148175907C8F08417950769F41097E5
:1035A00031F012960C93129713961C9327C0009338
:1035B0002F231093302322C02115310519F0421713
:1035C000530718F49A01BD01EF01DF01F801DBCFC9
:1035D00021153105F9F0281B390B2430310580F411
:1035E0008A819B816115710521F0FB0182839383A0
:1035F00004C080932F2390933023FE01329644C061
:10360000FE01E20FF31F8193919322503109288329
:1036100039833AC020912D2330912E23232B41F45E
:10362000209102203091032020932D2330932E23CC
:1036300020910020309101202115310541F42DB752
:103640003EB74091042050910520241B350BE0919A
:103650002D23F0912E23E217F307A0F42E1B3F0B2E
:103660002817390778F0AC014E5F5F4F24173507F4
:1036700048F04E0F5F1F40932D2350932E238193CC
:10368000919302C0E0E0F0E0CF01DF91CF911F9174
:103690000F910895CF93DF93009709F481C0FC0147
:1036A000329712821382A0912F23B091302310976A
:1036B00081F420813181820F931F20912D2330913D
:1036C0002E232817390751F5E0932D23F0932E234D
:1036D00067C0ED0120E030E0CE17DF0740F44A81FB
:1036E0005B819E0141155105F1F0EA01F5CFC283DE
:1036F000D38340815181840F951FC817D90759F48E
:1037000088819981840F951F0296808391838A8195
:103710009B81828393832115310529F4E0932F2324
:10372000F09330233DC0E901EA83FB83499159912D
:10373000C40FD51FEC17FD0761F480819181840FC0
:10374000951F0296E90188839983828193818A83F8
:103750009B83E0E0F0E012968D919C911397009787
:1037600019F0FD01DC01F7CF8D919C9111979D011E
:103770002E5F3F4F820F931F20912D2330912E23D8
:103780002817390769F4309729F410922F231092E3
:10379000302302C012821382A0932D23B0932E23D4
:1037A000DF91CF910895FB01DC0102C001900D92E1
:1037B00041505040D8F70895FB01DC018D910190F4
:1037C00080190110D9F3990B08950F931F93CF938C
:1037D000DF93CDB7DEB72E97CDBFDEBF0E891F8931
:1037E000888D998D26E02C8309831A8397FF02C068
:1037F00080E090E801978D839E83AE01445E5F4F29
:103800006A8D7B8DCE01019616D04D815E8157FD6C
:103810000AC02F813885421753070CF49A01F8012A
:10382000E20FF31F10822E96CDBFDEBFDF91CF9146
:103830001F910F9108952F923F924F925F926F9236
:103840007F928F929F92AF92BF92CF92DF92EF9230
:10385000FF920F931F93CF93DF93CDB7DEB72B97D4
:10386000CDBFDEBF6C017B018A01FC01168217828D
:10387000838181FFBFC1CE0101963C01F601938196
:10388000F70193FD859193FF81917F01882309F4CE
:10389000ADC1853239F493FD859193FF81917F010C
:1038A000853221F4B60190E0D3D1E8CF912C212CC0
:1038B000312CFFE1F315D8F08B3279F038F48032F7
:1038C00079F08332A1F4232D20611DC08D3261F087
:1038D000803369F4232D216016C0832D8260382E39
:1038E000E32DE4603E2E2AC0F32DF8601DC037FCA6
:1038F0002DC020ED280F2A3040F08E32B9F436FC6E
:1039000075C1232D2064322E19C036FE06C08AE010
:10391000989E200D1124922E11C0EAE02E9E200DBB
:103920001124222EF32DF0623F2E08C08C3621F494
:10393000832D8068382E02C0883641F4F70193FD4C
:10394000859193FF81917F018111B3CF982F9F7D46
:103950009554933028F40C5F1F4F9FE399830DC05B
:10396000833631F0833771F0833509F055C020C0BC
:10397000F801808189830E5F1F4F88248394912CE6
:10398000530112C02801F2E04F0E511CF801A08033
:10399000B18036FE03C0692D70E002C06FEF7FEF8B
:1039A000C5014BD14C018201F32DFF773F2E15C08D
:1039B000280122E0420E511CF801A080B18036FEA1
:1039C00003C0692D70E002C06FEF7FEFC5012AD1FF
:1039D0004C01F32DF0683F2E820133FC19C0822D7B
:1039E00090E088169906A0F4B60180E290E030D10C
:1039F0002A94F5CFF50137FC859137FE81915F015F
:103A0000B60190E025D121102A9421E0821A910874
:103A10008114910479F7E1C0843611F0893639F5C3
:103A2000F80137FE07C060817181828193810C5F4C
:103A30001F4F08C060817181072E000C880B990B05
:103A40000E5F1F4FF32DFF763F2E97FF09C0909515
:103A50008095709561957F4F8F4F9F4FF0683F2EF7
:103A60002AE030E0A30130D1882E861844C0853783
:103A700031F4232D2F7EB22E2AE030E025C0932D85
:103A8000997FB92E8F36C1F018F4883579F0AEC021
:103A9000803719F0883721F0A9C0E92FE061BE2EE8
:103AA000B4FE0DC0FB2DF460BF2E09C034FE0AC069
:103AB000292F2660B22E06C028E030E005C020E1A4
:103AC00030E002C020E132E0F801B7FE07C06081BB
:103AD0007181828193810C5F1F4F06C0608171816B
:103AE00080E090E00E5F1F4FA301EED0882E861875
:103AF000FB2DFF773F2E36FE0DC0232D2E7FA22EED
:103B0000891458F434FE0BC032FC09C0832D8E7E1C
:103B1000A82E05C0B82CA32C03C0B82C01C0B92C0A
:103B2000A4FE0FC0FE01E80DF11D8081803321F459
:103B30009A2D997EA92E09C0A2FE06C0B394B39413
:103B400004C08A2D867809F0B394A3FC10C0A0FEAF
:103B500006C0B21480F4280C922C9B180DC0B2142D
:103B600058F4B60180E290E073D0B394F8CFB21469
:103B700018F42B1802C0982C212CA4FE0FC0B601FB
:103B800080E390E065D0A2FE16C0A1FC03C088E7E8
:103B900090E002C088E590E0B6010CC08A2D8678DE
:103BA00051F0A1FE02C08BE201C080E2A7FC8DE2D1
:103BB000B60190E04DD0891430F4B60180E390E076
:103BC00047D09A94F8CF8A94F301E80DF11D8081D3
:103BD000B60190E03DD08110F6CF222009F44ECE00
:103BE000B60180E290E034D02A94F7CFF6018681C6
:103BF000978102C08FEF9FEF2B96CDBFDEBFDF9185
:103C0000CF911F910F91FF90EF90DF90CF90BF90D9
:103C1000AF909F908F907F906F905F904F903F906C
:103C20002F900895FC010590615070400110D8F765
:103C3000809590958E0F9F1F0895FC0161507040F4
:103C400001900110D8F7809590958E0F9F1F0895D1
:103C50000F931F93CF93DF93FB01238121FD03C0BB
:103C60008FEF9FEF2CC022FF16C046815781248121
:103C700035814217530744F4A081B1819D012F5F24
:103C80003F4F208331838C93268137812F5F3F4FB5
:103C90002683378314C08B01EC01FB010084F1857E
:103CA000E02D1995892BE1F6D80116968D919C91FE
:103CB0001797019616968D939C931797CE01DF91D7
:103CC000CF911F910F910895FA01AA27283051F141
:103CD000203181F1E8946F936E7F6E5F7F4F8F4F3D
:103CE0009F4FAF4FB1E03ED0B4E03CD0670F781F9C
:103CF000891F9A1FA11D680F791F8A1F911DA11D81
:103D00006A0F711D811D911DA11D20D009F46894B9
:103D10003F912AE0269F11243019305D3193DEF661
:103D2000CF010895462F4770405D4193B3E00FD017
:103D3000C9F7F6CF462F4F70405D4A3318F0495D02
:103D400031FD4052419302D0A9F7EACFB4E0A695E5
:103D50009795879577956795BA95C9F70097610507
:103D6000710508959B01AC010A2E0694579547955D
:103D700037952795BA95C9F7620F731F841F951F52
:083D8000A01D0895F894FFCF87
:103D8800000031232000000E020607207D04802554
:103D980000000300000A00842049444C4500546D8B
:103DA8007220537663004D4552414820004B554ED2
:103DB800494E470048494A415520004C414D50550D
:103DC8003A202573202020200A50616E6A616E67B0
:103DD8003A20256420636D202020200A54696D65EF
:103DE8003A20256420732020200A4D65737361678B
:103DF800653A202573200052544F53207631302ED7
:0A3E0800322E3100434C4F534500A9
:00000001FF
