:100000004FC200006EC200006CC200006AC2000055
:1000100068C2000066C2000064C2000062C2000044
:1000200060C200005EC200005CC200005AC2000054
:1000300058C2000056C200000C94A40A52C200002C
:1000400050C200004EC200004CC200004AC2000074
:1000500048C2000046C2000044C2000042C2000084
:1000600040C200003EC200003CC200003AC2000094
:1000700038C2000036C2000034C2000032C20000A4
:1000800030C200002EC200002CC200002AC20000B4
:1000900028C2000026C2000024C2000022C20000C4
:1000A00020C200001EC200001CC200001AC20000D4
:1000B00018C2000016C2000014C2000012C20000E4
:1000C00010C200000EC200000CC200000AC20000F4
:1000D00008C2000006C2000004C2000002C2000004
:1000E00000C20000FEC10000FCC10000FAC1000017
:1000F000F8C10000F6C10000F4C10000F2C1000028
:10010000F0C10000EEC10000ECC10000EAC1000037
:10011000E8C10000E6C10000E4C10000E2C1000047
:10012000E0C10000DEC10000DCC10000DAC1000057
:10013000D8C10000D6C10000D4C10000D2C1000067
:10014000D0C10000CEC10000CCC10000CAC1000077
:10015000C8C10000C6C10000C4C10000C2C1000087
:10016000C0C10000BEC10000BCC10000BAC1000097
:10017000B8C10000B6C10000B4C10000B2C10000A7
:10018000B0C10000AEC10000ACC10000AAC10000B7
:10019000A8C10000A6C10000A4C10000A2C10000C7
:1001A000A0C100009EC100009CC100009AC10000D7
:1001B00098C1000096C1000094C1000092C10000E7
:1001C00090C100008EC100008CC100008AC10000F7
:1001D00088C1000086C1000084C1000082C1000007
:1001E00080C100007EC100007CC100007AC1000017
:1001F00078C1000076C1000074C10000B114B114D0
:10020000DE14E314F814B114B114DE14E314000086
:10021000000000000020202020200020505050002E
:100220000000005050F850F850502078A07028F08E
:1002300020C0C810204098186090A040A890686026
:1002400020400000000010204040402010402010BE
:1002500010102040005020F8205000002020F820EE
:10026000200000000000602040000000F8000000B6
:1002700000000000006060000810204080007088CE
:1002800098A8C888702060202020207070880810EE
:100290002040F8F810201008887010305090F810A6
:1002A00010F880F008088870304080F0888870F876
:1002B0000810204040407088887088887070888856
:1002C000780810600060600060600000606000609E
:1002D0002040081020402010080000F800F800001E
:1002E00080402010204080708808102000207088F6
:1002F0000868A8A87070888888F88888F08888F0CE
:100300008888F070888080808870E09088888890E5
:10031000E0F88080F08080F8F88080E08080807055
:10032000888080988870888888F8888888702020DD
:1003300020202070381010101090608890A0C0A06D
:100340009088808080808080F888D8A88888888875
:100350008888C8A898888870888888888870F08875
:1003600088F080808070888888A89068F08888F0FD
:10037000A09088788080700808F0F8202020202045
:10038000208888888888887088888888885020880D
:100390008888A8A8D888888850205088888888505D
:1003A00020202020F80810204080F838202020202D
:1003B000203800804020100800E02020202020E08D
:1003C00020508800000000000000000000F84020DD
:1003D0001000000000000070087888788080B0C8A5
:1003E0008888F00000708080887008086898888885
:1003F0007800007088F88070304840E0404040004D
:100400000078887808308080B0C8888888200060AC
:100410002020207010003010109060404048506044
:100420005048602020202020700000D0A8A8888894
:100430000000B0C888888800007088888870000034
:10044000F088F08080000068987808080000B0C844
:10045000808080000070807008F04040E04040489C
:1004600030000088888898680000888888502000BC
:10047000008888A8A8500000885020508800008874
:10048000887808700000F8102040F81020204020E4
:10049000201020202020202020402020102020403C
:1004A00011241FBECFEFCDBFDFE5DEBF00E00CBFE4
:1004B00010E2A0E0B0E2E8EEF7E300E00BBF02C01C
:1004C00007900D92AC34B107D9F722E2ACE4B0E268
:1004D00001C01D92AF3CB207E1F70E9453170C9484
:1004E000F21B8ECD04C0615071098109910961151B
:1004F000710581059105B9F70895BF92CF92DF92FA
:10050000EF92FF920F931F93CF93DF931F92CDB77C
:10051000DEB700E016E06894FF24F3F8F801F682F5
:1005200064E070E080E090E0DDDFF801F58264E0F7
:1005300070E080E090E0D6DF0F2EFBE2BF2EF02DC2
:10054000B98280EA99E0D4D4C12CD12C760100E4A0
:1005500012E42FE030E043E0BE016F5F7F4F80EA9E
:1005600099E0F5D400E616E0FF24F394F801F68252
:10057000B982BE016F5F7F4F80EA99E002D5F80132
:10058000F682E0EAF9E0818185FFFDCF80EA809381
:10059000A009E0EAF9E0818186FFFDCFE0EAF9E019
:1005A00080E481838081BE016F5F7F4F80EA99E0A4
:1005B000FED48BE28983BE016F5F7F4F80EA99E0B2
:1005C000E0D481E080936606E0EAF9E0818185FF6E
:1005D000FDCF86EA8093A009E0EAF9E0818186FFF9
:1005E000FDCFE0EAF9E080E481838081BE016F5FA6
:1005F0007F4F80EA99E0DBD48BE28983BE016F5F95
:100600007F4F80EA99E0BDD481E080936606E0EAFE
:10061000F9E0818185FFFDCF88EC8093A009E0EAB5
:10062000F9E0818186FFFDCFE0EAF9E080E4818393
:100630008081BE016F5F7F4F80EA99E0B8D48BE282
:100640008983BE016F5F7F4F80EA99E09AD481E091
:1006500080936606E0EAF9E0818185FFFDCF82EABA
:100660008093A009E0EAF9E0818186FFFDCFE0EA0E
:10067000F9E080E481838081BE016F5F7F4F80EA73
:1006800099E095D48BE28983BE016F5F7F4F80EA4A
:1006900099E077D481E080936606E0EAF9E0818111
:1006A00085FFFDCF8FE28093A009E0EAF9E0818128
:1006B00086FFFDCFE0EAF9E080E481838081BE011E
:1006C0006F5F7F4F80EA99E072D48BE28983BE012D
:1006D0006F5F7F4F80EA99E054D481E08093660693
:1006E000E0EAF9E0818185FFFDCF88EF8093A009E2
:1006F000E0EAF9E0818186FFFDCFE0EAF9E080E4FD
:1007000081838081BE016F5F7F4F80EA99E04FD483
:100710008BE28983BE016F5F7F4F80EA99E031D41D
:1007200081E080936606E0EAF9E0818185FFFDCFF4
:100730001092A009E0EAF9E0818186FFFDCFE0EAAE
:10074000F9E080E481838081BE016F5F7F4F80EAA2
:1007500099E02DD48BE28983BE016F5F7F4F80EAE1
:1007600099E00FD481E080936606E0EAF9E08181A8
:1007700085FFFDCF81E28093A009E0EAF9E0818165
:1007800086FFFDCFE0EAF9E080E481838081BE014D
:100790006F5F7F4F80EA99E00AD48BE28983BE01C4
:1007A0006F5F7F4F80EA99E0ECD381E0809366062B
:1007B000E0EAF9E0818185FFFDCF81E88093A0091F
:1007C000E0EAF9E0818186FFFDCFE0EAF9E080E42C
:1007D00081838081BE016F5F7F4F80EA99E0E7D31C
:1007E0008BE28983BE016F5F7F4F80EA99E0C9D3B6
:1007F00081E080936606E0EAF9E0818185FFFDCF24
:1008000081E28093A009E0EAF9E0818186FFFDCFD3
:10081000E0EAF9E080E481838081BE016F5F7F4F71
:1008200080EA99E0C4D38BE28983BE016F5F7F4F7A
:1008300080EA99E0A6D381E080936606E0EAF9E0D9
:10084000818185FFFDCF8FEA8093A009E0EAF9E07E
:10085000818186FFFDCFE0EAF9E080E48183808139
:10086000BE016F5F7F4F80EA99E0A1D30F90DF91C7
:10087000CF911F910F91FF90EF90DF90CF90BF909D
:100880000895FF920F931F93CF93DF931F92CDB7DD
:10089000DEB7082FF62E142FA5D30F70006B8BE256
:1008A0008983BE016F5F7F4F80EA99E06AD381E060
:1008B00080936606E0EAF9E0918195FFFDCF009311
:1008C000A009E0EAF9E0818186FFFDCFE0EAF9E0E6
:1008D00080E481838081BE016F5F7F4F80EA99E071
:1008E00066D30F2D0F7702950F7000618BE289831D
:1008F000BE016F5F7F4F80EA99E043D381E0809330
:100900006606E0EAF9E0818185FFFDCF0093A0094A
:10091000E0EAF9E0818186FFFDCFE0EAF9E080E4DA
:1009200081838081BE016F5F7F4F80EA99E03FD372
:100930000F2D0F708BE28983BE016F5F7F4F80EABE
:1009400099E01FD381E080936606E0EAF9E08181B7
:1009500085FFFDCF0093A009E0EAF9E0818186FFE1
:10096000FDCFE0EAF9E080E481838081BE016F5F22
:100970007F4F80EA99E01BD38BE28983BE016F5FD2
:100980007F4F80EA99E0FDD281E080936506E0EA3E
:10099000F9E0818185FFFDCF1093A009E0EAF9E03D
:1009A000818186FFFDCFE0EAF9E080E481838081E8
:1009B00081E080936606BE016F5F7F4F80EA99E019
:1009C000F6D20F90DF91CF911F910F91FF90089574
:1009D0000F931F93CF93DF931F92CDB7DEB78CE4B5
:1009E00090E2FBD28ADD8BE28983BE016F5F7F4F8D
:1009F00080EA99E0C6D281E080936606E0EAF9E0F9
:100A0000818185FFFDCF80E48093A009E0EAF9E0D1
:100A1000818186FFFDCFE0EAF9E080E48183808177
:100A2000BE016F5F7F4F80EA99E0C1D200E00AC04B
:100A300040E0612F802F25DF1F5F1038C9F70F5F5F
:100A4000043011F010E0F4CF0F90DF91CF911F919F
:100A50000F910895FF920F931F93CF93DF938823F5
:100A60004CF1603238F5D42FC82FF62EF694F69458
:100A7000F69470E088E0F89E60197109112481E015
:100A800090E08C0102C0000F111F6A95E2F76C2FF5
:100A90008F2DB6D2D13021F028F0D23031F006C0FF
:100AA000802B04C00095802301C08027482F6C2F25
:100AB0008F2DE7DEDF91CF911F910F91FF90089569
:100AC0009FC20895CF92DF92EF92FF920F931F93F0
:100AD000CF93DF93EC01D901C801B695A7959795FF
:100AE0008795481759076A077B0778F46A017B01E5
:100AF000CC0CDD1CEE1CFF1CC901B801A70196013E
:100B00000E94C1172150310902C020E030E0832F3C
:100B10008F708F832E83DF91CF911F910F91FF9064
:100B2000EF90DF90CF900895DF92EF92FF920F93B6
:100B30001F93CF93DF931F92CDB7DEB77C018B015C
:100B4000009709F4B2C1803C910521F460E180E096
:100B5000E1D2ABC180E8E81681E0F80621F462E05A
:100B600080E0D8D2A2C1E114E1E0FE0621F461E008
:100B700080E0D0D29AC1F0E8EF16F3E0FF0621F44E
:100B800061E081E0C7D291C130E9E31633E0F306BA
:100B900021F461E082E0BED288C1E11482E0F8066F
:100BA00021F462E081E0B6D280C1E0E4EE16E2E03A
:100BB000FE0621F462E082E0ADD277C1F0E2EF16EA
:100BC000F3E0FF0621F464E082E0A4D26EC1E114F8
:100BD00038E0F30621F461E083E09CD266C1E114C1
:100BE00089E0F80621F461E084E094D25EC1E1146A
:100BF000EAE0FE0621F461E085E08CD256C1E11402
:100C0000FBE0FF0621F461E086E084D24EC130E4CF
:100C1000E31638E0F30621F462E083E07BD245C1BD
:100C200080E4E81689E0F80621F462E084E072D2FC
:100C30003CC1E0E4EE16EAE0FE0621F462E085E065
:100C400069D233C1F0E9EF16F8E0FF0621F464E061
:100C500083E060D22AC130E9E31639E0F30621F4DB
:100C600064E084E057D221C180E9E8168AE0F80602
:100C700021F464E085E04ED218C1E0E9EE16EBE025
:100C8000FE0621F464E086E045D20FC1F0ECEF16D9
:100C9000F8E0FF0621F468E083E03CD206C130ECC6
:100CA000E31639E0F30621F468E084E033D2FDC0B6
:100CB00080EAE81688E0F80661F460E183E02AD271
:100CC000E0EAF8E084818F7E8483F8012481225059
:100CD0004CC0F0EAEF16F9E0FF0621F460E184E091
:100CE00019D2E3C030EAE3163AE0F30621F460E1FA
:100CF00085E010D2DAC080EAE8168BE0F80621F42D
:100D000060E186E007D2D1C0E0EBEE16E8E0FE0637
:100D100021F460E283E0FED1C8C0F0EBEF16F9E009
:100D2000FF0621F460E284E0F5D1BFC030E8E316AD
:100D300034E0F30621F460E483E0ECD1B6C080EA4D
:100D4000E81684E0F80621F460E485E0E3D1ADC064
:100D5000F70184818F7E8483FB0124812250C701A7
:100D6000F0EAEF16F8E0FF0649F480914E0684FDA4
:100D7000A5C00F2EF1E1DF2EF02DA4C0803B38E09E
:100D8000930791F0803AE9E09E0749F430916E06AE
:100D900034FD9BC00F2EF9E1DF2EF02D16C0803BF5
:100DA000F9E09F07F1F004C00F2EF5E1DF2EF02DE2
:100DB000803A3AE0930749F480918E0684FD8AC018
:100DC0000F2EF1E2DF2EF02D15C0803A9B4091F4FA
:100DD0008091AE0684FD0AC00F2EF9E2DF2EF02DC1
:100DE00009C00F2EFDE1DF2EF02D04C00F2EFDE215
:100DF000DF2EF02DED2DE695E695E69530E2E39FAA
:100E0000F0011124FA5F3D2D377081E090E0032E50
:100E100002C0880F991F0A94E2F78183223010F0F4
:100E200040E001C040E4DF015096A30FB11D9FB721
:100E30009983F89439812C9127702C939C91942B51
:100E40009C933FBF8583F7018581806C8583F80182
:100E500084818D7F813029F4F701858182608583CB
:100E600004C0F70185818D7F8583F8018581882302
:100E700029F0F70185818460858304C0F7018581AD
:100E80008B7F8583F801408151816281738100E805
:100E900014E82EE130E0C70115DEF7018481886097
:100EA00084838481806184831AC0F70184818F7E6A
:100EB0008483F80124812250C70160CF0F2EF5E111
:100EC000DF2EF02D80EA98E06ACF0F2EFDE1DF2EB5
:100ED000F02D7BCF0F2EF5E2DF2EF02D8BCF0F9074
:100EE000DF91CF911F910F91FF90EF90DF900895C8
:100EF000803A28E0920721F460E183E00BC1089575
:100F0000803B28E0920721F460E283E003C108956A
:100F1000803A29E0920721F460E184E0FBC0089563
:100F2000803B29E0920721F460E284E0F3C0089559
:100F3000803A2AE0920721F460E185E0EBC0089551
:100F4000803A9B4019F460E186E0E4C008950F9375
:100F50001F93CF93DF9300D000D0CDB7DEB70983C6
:100F60001A832B833C834D831E82BE016F5F7F4FAC
:100F7000DBDD2696CDBFDEBFDF91CF911F910F91B4
:100F80000895FB018081E82FE695E695E69540E21D
:100F9000E49FF0011124FA5F877021E030E0A9019D
:100FA00002C0440F551F8A95E2F746830895FB015E
:100FB0008081E82FE695E695E69540E2E49FF00112
:100FC0001124FA5F877021E030E0A90102C0440FCC
:100FD000551F8A95E2F74583089580934C2290939C
:100FE0004D22089520914C2230914D2290E8899F06
:100FF000200D311D1124F901E60FF11D40830895E4
:1010000020914C2230914D2290E8899F200D311D76
:101010001124F901E60FF11D80810895FF920F93CD
:101020001F93CF93DF93E42FF0E0E80FF11DE13839
:10103000F1051CF0C0E84C2F481B442309F44AC0BA
:10104000D62FD695D695D69570E098E0D99F6019A1
:1010500071091124E1E0F0E0DF0102C0AA0FBB1F1B
:101060006A95E2F7FA2E213021F098F0223019F13A
:1010700031C0C42F1FEF180F012F0C0F602F8D2FC1
:101080001FDD4F2D482B602F8D2FFBDBC150A1F7AB
:1010900021C0C42F1FEF180FFA2EF094012F0C0F50
:1010A000602F8D2F0DDD4F2D4823602F8D2FE9DB15
:1010B000C150A1F70FC0C42F1FEF180F012F0C0F45
:1010C000602F8D2FFDDC4F2D4827602F8D2FD9DB12
:1010D000C150A1F7DF91CF911F910F91FF9008951B
:1010E000FF920F931F93CF93DF93222369F0F42E87
:1010F000182FC22FDFEFD60F6D2F6C0F202F4F2D23
:10110000812F8CDFC150C1F7DF91CF911F910F91DB
:10111000FF900895CF93DF931F92CDB7DEB79FB7AF
:101120009983F8949981E82FF0E0E059FF4F60959A
:101130008081682360839FBF0F90DF91CF910895D6
:10114000AF92BF92CF92DF92EF92FF920F931F93D5
:10115000CF93DF93C82FE62EB42E690100E0F9018A
:10116000248143816B2D8E2DBBDFF601808181119F
:1011700039C08381282F269526952695877009F0FA
:101180002F5FF601A4808C2F90E03581831B91099D
:101190002A9D90011124829FA001839F500D929F50
:1011A000500D112401811281040F151FF601F380E7
:1011B000FF20A1F0D0E0C0E08E2D8C0F9C2F977007
:1011C00021F4F801D4910F5F1F4FDD231CF441E09F
:1011D0006B2D40DCDD0FCF5FFC12EECFB394AA94F1
:1011E000A110E4CFDF91CF911F910F91FF90EF906D
:1011F000DF90CF90BF90AF900895DF92EF92FF9273
:101200000F931F93CF93DF93D62E042F7901EC0118
:10121000162F89918A3031F4F70184818F5F080F8E
:101220001D2D09C08D3039F09701402F612F88DFC7
:10123000F7018381180F88818111EBCFDF91CF9166
:101240001F910F91FF90EF90DF900895FC0103969E
:10125000818392832FEF3FEF2383348385839683AB
:101260008783908710820895FC0110861186089567
:10127000CF93DF93EB01488159814F3F2FEF520706
:1012800021F4FC01A781B0850DC0DC01139601C0DB
:10129000DF011296ED91FC91139720813181421765
:1012A0005307B0F71296ED91FC911397EA83FB83F5
:1012B000C483D583AC83BD831296CD93DC931397FF
:1012C00088879987FC0120812F5F2083DF91CF9150
:1012D0000895CF93DF93FC01A085B185C281D381AE
:1012E000848195818C839D83C481D5818281938102
:1012F0008A839B8311968D919C911297E817F90729
:1013000031F48481958111968D939C931297108668
:1013100011868C9181508C938C91DF91CF9108959F
:101320000F931F938B0171E1FC017083319762E28F
:101330006083319723E32083012E000C220B330BB3
:101340003197008331971083319720833197108232
:10135000319720E8208331971082319722E0208353
:10136000319723E02083319724E02083319725E0D3
:101370002083319726E02083319727E0208331971F
:1013800028E02083319729E02083319720E12083D2
:1013900031977083319722E12083319723E12083B5
:1013A000319724E12083319725E12083319726E18D
:1013B0002083319727E12083319728E120833197DB
:1013C00029E12083319720E22083319721E2208395
:1013D00031976083319723E220833197408331979F
:1013E0005083319726E22083319727E2208331977B
:1013F00028E22083319729E22083319720E320835C
:10140000319721E3208387971F910F910895F894D6
:10141000E0E7F0E083818A7F8383E0E0F8E080E02A
:101420009AEF86A397A391E09683A0EAB0E0129684
:101430008C911297816012968C9390837894A091EE
:10144000A922B091AA220D900DBE0D900EBEFF9163
:10145000EF91DF91CF91BF91AF919F918F917F914C
:101460006F915F914F913F912F911F910F91FF903D
:10147000EF90DF90CF90BF90AF909F908F907F9034
:101480006F905F904F903F902F901F900F900FBEE6
:101490000F90089581E008950F920FB6F8940F927F
:1014A0001F9211242F923F924F925F926F927F92E0
:1014B0008F929F92AF92BF92CF92DF92EF92FF9264
:1014C0000F931F932F933F934F935F936F937F934C
:1014D0008F939F93AF93BF93CF93DF93EF93FF933C
:1014E000A091A922B091AA220DB60D920EB60D922E
:1014F00062D7A091A922B091AA220D900DBE0D90A5
:101500000EBEFF91EF91DF91CF91BF91AF919F916F
:101510008F917F916F915F914F913F912F911F918B
:101520000F91FF90EF90DF90CF90BF90AF909F9082
:101530008F907F906F905F904F903F902F901F9073
:101540000F900FBE0F9008950F920FB6F8940F9260
:101550001F9211242F923F924F925F926F927F922F
:101560008F929F92AF92BF92CF92DF92EF92FF92B3
:101570000F931F932F933F934F935F936F937F939B
:101580008F939F93AF93BF93CF93DF93EF93FF938B
:10159000A091A922B091AA220DB60D920EB60D927D
:1015A00007D5811108D7A091A922B091AA220D9048
:1015B0000DBE0D900EBEFF91EF91DF91CF91BF91C7
:1015C000AF919F918F917F916F915F914F913F91DB
:1015D0002F911F910F91FF90EF90DF90CF90BF90D0
:1015E000AF909F908F907F906F905F904F903F90C3
:1015F0002F901F900F900FBE0F901895CF93DF93F1
:10160000EC01C6D4CE010E94EB17EC01E9D5CE0166
:10161000DF91CF910895CF93DF93009731F0EC01E4
:10162000B7D4CE010E948318DBD5DF91CF91089506
:101630000FB6F8940F92FC01928D0F900FBE81E0CF
:10164000911180E008950F931F93CF93DF93EC01E6
:10165000042F1A8D4C8D4423B9F1011116C050E0AE
:101660008A819B810E940C192C8D8A819B81820F1B
:10167000911D8A839B832C813D818217930720F1E2
:10168000888199818A839B831FC050E08E819F81CE
:101690000E940C198C8D90E09195819591092E8175
:1016A0003F81280F391F2E833F834881598124179A
:1016B000350730F42C813D81820F931F8E839F83E9
:1016C000023011F4111111501F5F1A8F80E0DF9169
:1016D000CF911F910F910895FC01448D4423A9F0EF
:1016E00050E026813781240F351F2683378384817C
:1016F00095812817390720F080819181868397830F
:10170000CB01668177810C940C190895EF92FF92BA
:101710000F931F93CF938C010FB6F8940F92FC0197
:10172000C68D1C169CF48189811106C00FC0F8017A
:101730008189811105C00AC07801F1E1EF0EF11C29
:10174000C701F8D68111EFD7C15089F78FEFF801A3
:10175000868F0F900FBE0FB6F8940F92C58D1C1692
:101760009CF48085811106C00FC0F801808581112D
:1017700005C00AC07801F8E0EF0EF11CC701DAD607
:101780008111D1D7C15089F78FEFF801858F0F9064
:101790000FBECF911F910F91FF90EF900895EF92A0
:1017A000FF920F931F93CF93DF93FC01362F892B6A
:1017B00009F448C0238D222309F446C0022F10E00B
:1017C000448DE42EF12C8FEF9FEFB8010E94AD17EE
:1017D0006E157F0508F43AC0EF010FB6F8940F922A
:1017E00060817181CB01249F800D911D1124848320
:1017F0009583128E62837383015011090E9DC0017F
:101800000F9D900D1E9D900D1124860F971F8683AE
:1018100097838FEF858F868F31110AC0808588234B
:1018200069F0CF01089686D6882341F035DE06C0E0
:10183000CF0108960BDDCE01419608DD0F900FBE5B
:1018400081E005C080E003C080E001C080E0DF915E
:10185000CF911F910F91FF90EF9008950F931F93D9
:10186000CF93DF93282F362F882351F1682F70E014
:101870008FEF9FEF0E94AD17832F90E068177907D5
:1018800010F1239FC0011124813E4FEF9407F0F423
:10189000D32FC22F4F96B2DE8C010097C9F0D11121
:1018A00004C0FC018083918304C04F96F8018083BB
:1018B0009183F801C38FD48F61E0C80170DF08C045
:1018C00000E010E005C000E010E002C000E010E021
:1018D000C801DF91CF911F910F910895AF92BF92F0
:1018E000CF92DF92EF92FF920F931F93CF93DF93EC
:1018F000CDB7DEB72597CDBFDEBF8C016B014C8322
:101900005D83A22EB12C7C0188E0E80EF11C0FB69D
:10191000F8940F92F801928D838D981718F0F2E0E9
:10192000AF1215C04A2DB601C8018DDEF8019189AC
:10193000992339F0C8014196FDD5882321F0ACDD0B
:1019400002C08111A9DD0F900FBE81E046C08C81DD
:101950009D81892B21F40F900FBE80E03EC0B11015
:1019600005C0CE010196A4D6BB24B3940F900FBE40
:101970000FD30FB6F8940F92F801858D8F3F09F4BD
:10198000158EF801868D8F3F09F4168E0F900FBECD
:10199000BE016C5F7F4FCE01019695D6811119C0B3
:1019A0000FB6F8940F92F801928D0F900FBE838DB1
:1019B00098130BC06C817D81C70163D5C801A6DE79
:1019C0000FD48111A4CF68DDA2CFC8019FDE08D457
:1019D0009ECFC8019BDE04D480E02596CDBFDEBF3C
:1019E000DF91CF911F910F91FF90EF90DF90CF90FB
:1019F000BF90AF900895AF92BF92CF92DF92EF92D7
:101A0000FF920F931F93CF93DF93CDB7DEB7259748
:101A1000CDBFDEBF8C015B014C835D83E12C6C018B
:101A200081E1C80ED11C0FB6F8940F92F801F28C28
:101A3000FF2091F0B501C8014FDEFA94F801F28E53
:101A40008085882329F0C801089674D5811124DD8A
:101A50000F900FBE81E045C08C819D81892B21F4C0
:101A60000F900FBE80E03DC0E11005C0CE01019691
:101A70001FD6EE24E3940F900FBE8AD20FB6F894CF
:101A80000F92F801858D8F3F09F4158EF801868D30
:101A90008F3F09F4168E0F900FBEBE016C5F7F4F13
:101AA000CE01019610D6811113C0C801C1DD882373
:101AB00059F06C817D81C601E4D4C80127DE90D342
:101AC0008111B1CFE9DCAFCFC80120DE89D3ABCF24
:101AD000C8011CDE85D3C801ABDD882309F4A3CF80
:101AE00080E02596CDBFDEBFDF91CF911F910F9192
:101AF000FF90EF90DF90CF90BF90AF900895DF926E
:101B0000EF92FF920F931F93CF93DF93CDB7DEB782
:101B10002597CDBFDEBF8C016C837D83D12C7C01EA
:101B200081E1E80EF11C0FB6F8940F92F801828D56
:101B3000882371F08150828F8085882329F0C80125
:101B40000896F8D48111A8DC0F900FBE81E045C043
:101B50008C819D81892B21F40F900FBE80E03DC0C8
:101B6000D11005C0CE010196A3D5DD24D3940F90EA
:101B70000FBE0ED20FB6F8940F92F801858D8F3FED
:101B800009F4158EF801868D8F3F09F4168E0F909B
:101B90000FBEBE016C5F7F4FCE01019694D58111BF
:101BA00013C0C80145DD882359F06C817D81C701D0
:101BB00068D4C801ABDD14D38111B5CF6DDCB3CFD0
:101BC000C801A4DD0DD3AFCFC801A0DD09D3C80182
:101BD0002FDD882309F4A7CF80E02596CDBFDEBF97
:101BE000DF91CF911F910F91FF90EF90DF900895BB
:101BF000CF93DF93EC010FB6F8940F928D8D8F3F4A
:101C000009F41D8E8E8D8F3F09F41E8E0F900FBE2E
:101C10008A8D811103C0CE01419644D4CE0176DD78
:101C2000DF91CF910895E0916822F091692280813F
:101C3000811107C08FEF9FEF809351229093522222
:101C40000895E0916822F09169220580F681E02DE7
:101C50008081918180935122909352220895CCE704
:101C6000D2E288818230E8F317DCFBCF0F931F9319
:101C7000CF93DF93EC0100915A2210915B22809167
:101C8000A9229091AA22029624DBC00FD11FE091D5
:101C9000A922F091AA22C283D383C017D10760F48E
:101CA0006091A9227091AA22809166229091672268
:101CB0006E5F7F4FDDDA16C06091A9227091AA2273
:101CC00080916822909169226E5F7F4FD1DA809176
:101CD000512290915222C817D90720F4C093512263
:101CE000D0935222DF91CF911F910F9108954F927F
:101CF0005F926F927F928F929F92AF92BF92CF929C
:101D0000DF92EF92FF920F931F93CF93DF934C01DB
:101D10006B015A012901CA0171DC3C01892B09F4CC
:101D2000F8C086E290E06ADCEC01892B59F06F8AFA
:101D3000788E81E0A81AB108A60CB71CC114D10492
:101D400021F41FC0C30167DCE4C0D6018C91898FE8
:101D50008C918823A1F0AE01465E5F4FF60131966B
:101D6000B8E0CB0ED11CCF012191DA012D93AD014A
:101D7000DC018C91882319F0CE16DF06A1F718A29A
:101D800001C0198E053008F004E00E8B6E01B2E040
:101D9000CB0ED11CC60168DACE010C9665DAC88775
:101DA000D98785E090E0801B91098C879D87CA8B3D
:101DB000DB8B84E0FE01B196DF011D928A95E9F785
:101DC0001DA2A201B401C501ABDA88839983E11495
:101DD000F10419F0F701C083D1830FB6F8940F9284
:101DE00080915C228F5F80935C228091A9229091E8
:101DF000AA22892B69F5C093A922D093AA228091A7
:101E00005C228130A9F50CE712E20F2EF9EAEF2EE1
:101E1000F2E2FF2EF02DC80119DA075F1F4F0E15F1
:101E20001F05C9F783E792E211DA8AE692E20EDA39
:101E30008DE592E20BDA83E792E280936822909339
:101E400069228AE692E2809366229093672210C00C
:101E50008091582281110CC0E091A922F091AA2210
:101E600096898E89891720F0C093A922D093AA223F
:101E7000809153228F5F809353228E8990915922B3
:101E8000981710F48093592290E0FC01EE0FFF1F89
:101E9000EE0FFF1FEE0FFF1F8E0F9F1FFC01E45878
:101EA000FD4D0180F281E02DEC83FD8384819581DD
:101EB0008E839F83A481B5811296CD92DC92139775
:101EC000C482D582EE89F0E0CF01880F991F880F78
:101ED000991F880F991FE80FF91FE458FD4DEA87F5
:101EE000FB8780818F5F80830F900FBE8091582287
:101EF000882359F0E091A922F091AA2296898E892F
:101F0000981728F4C9DA81E005C081E003C081E0B8
:101F100001C08FEFDF91CF911F910F91FF90EF9054
:101F2000DF90CF90BF90AF909F908F907F906F90F9
:101F30005F904F900895EF92FF920F930F2EFFE462
:101F4000EF2EF2E2FF2EF02D00E020E030E045E53C
:101F500050E06EE070E28FE29EE0C9DE813091F4E5
:101F600099D5813079F4F8948FEF9FEF80935122C7
:101F70009093522281E08093582210925A2210921C
:101F80005B2245DA80910D200F91FF90EF9008952C
:101F900080914E228F5F80934E2208950FB6F89461
:101FA0000F9280915A2290915B220F900FBE08955C
:101FB0000F931F93CF93DF9380914E22811101C124
:101FC000C0915A22D0915B228E010F5F1F4F009368
:101FD0005A2210935B2201151105B1F480916822F9
:101FE0009091692220916622309167222093682285
:101FF00030936922809366229093672280915422C5
:102000008F5F809354220FDE809151229091522253
:102010000817190710F480E0B8C080E0E09168224A
:10202000F09169229081911107C02FEF3FEF20932B
:10203000512230935222A9C0E0916822F091692286
:102040000580F681E02D0680F781E02D2281338125
:102050000217130728F4209351223093522295C07F
:10206000A285B3852481358146815781E9014C835E
:102070005D832681378144815581E9014A835B83F1
:10208000AF014E5F5F4F11962D913C91129724172F
:10209000350731F42681378111962D933C931297A1
:1020A000128613869C9191509C93A489B5891097B0
:1020B00019F12685378560897189E9016C837D83F3
:1020C0002089318966857785E9016A837B8311964A
:1020D0006D917C9112979F01245F3F4F62177307A8
:1020E00031F42089318911962D933C931297148AEB
:1020F000158A9C9191509C93268990915922921710
:1021000010F42093592230E0D901AA0FBB1FAA0F67
:10211000BB1FAA0FBB1F2A0F3B1FD901A458BD4DDF
:1021200011960D90BC91A02DA483B58314962D918A
:102130003C9115972683378314962D913C911597E2
:10214000E9014A835B8314964D935C931597A689A6
:10215000B0E09D01220F331F220F331F220F331FC8
:10216000A20FB31FA458BD4DA287B3879C919F5F58
:102170009C93A091A922B091AA22268956969C915F
:10218000291708F44BCF81E049CFE091A922F091C3
:10219000AA22268930E0F901EE0FFF1FEE0FFF1F84
:1021A000EE0FFF1F2E0F3F1FF901E458FD4D9081E8
:1021B000923008F081E090915522992361F081E0FE
:1021C0000AC0809156229091572201968093562200
:1021D0009093572280E0DF91CF911F910F91089546
:1021E0001F93CF93DF930FB6F8940F9280914E22F6
:1021F000815080934E2280914E228111C3C08091E4
:102200005C2281119BC0C1C0DB011596ED91FC9150
:1022100016970680F781E02DA489B5898685978574
:1022200020893189EC012C833D8380899189268521
:102230003785EC012A833B83CF010C9611962D91B3
:102240003C9112972817390731F4808991891196AA
:102250008D939C931297148A158A8C9181508C933C
:10226000A285B3858481958126813781EC012C83F9
:102270003D838681978124813581EC012A833B83CC
:102280009F012E5F3F4F11968D919C91129782175F
:10229000930731F48681978111968D939C931297C1
:1022A000128613868C9181508C9386899091592245
:1022B000981710F48093592290E0DC01AA0FBB1FFD
:1022C000AA0FBB1FAA0FBB1F8A0F9B1FDC01A458BC
:1022D000BD4D11960D90BC91A02DA483B58314968D
:1022E0008D919C9115978683978314968D919C91DF
:1022F0001597EC012A833B8314962D933C931597F5
:10230000A689B0E0CD01880F991F880F991F880F0B
:10231000991FA80FB91FA458BD4DA287B3878C91F0
:102320008F5F8C93A091A922B091AA22968956968C
:102330008C91981740F04093552205C0E0E0F0E002
:102340006DE572E241E0DB018C9181115DCFEF2BF5
:1023500009F069DCC0915622D0915722209759F09C
:1023600011E026DE8111109355222197D1F71092AA
:1023700056221092572280915522882329F08CD81A
:1023800081E003C080E001C080E00F900FBEDF91CC
:10239000CF911F910895CF93DF93EC01892B39F0F2
:1023A000F7DD60E0CE0162DC1BDF811101C074D873
:1023B000DF91CF91089580914E22882321F081E012
:1023C0008093552208951092552220915922822FF0
:1023D00090E0FC01EE0FFF1FEE0FFF1FEE0FFF1F3F
:1023E000E80FF91FE458FD4D3081311111C0215023
:1023F000822F90E0FC01EE0FFF1FEE0FFF1FEE0F8C
:10240000FF1FE80FF91FE458FD4D3081332379F3A6
:10241000AC01440F551F440F551F440F551F480F63
:10242000591FDA01A458BD4D1196ED91FC911297F8
:102430000280F381E02D1196ED93FC9312974158A1
:102440005D4DE417F50729F442815381FD01418375
:102450005283FC01EE0FFF1FEE0FFF1FEE0FFF1F59
:102460008E0F9F1FFC01E458FD4D0180F281E02D8D
:10247000868197818093A9229093AA222093592242
:102480000895CF93DF93EB016091A9227091AA2266
:10249000645F7F4F0E94380961E0CE01E7DBDF9186
:1024A000CF9108950F931F93CF93DF93FC018B017E
:1024B000A181B2818091A9229091AA22EC01AE87DC
:1024C000BF878091A9229091AA2214962D913C91C8
:1024D0001597EC01288B398B14968D919C9115974B
:1024E0002091A9223091AA22245F3F4FEC012A8338
:1024F0003B832091A9223091AA22245F3F4F14965A
:102500002D933C931597A091A922B091AA2254969D
:10251000ED93FC93559790819F5F9083442311F036
:102520000FEF1FEF642FC801A1DBDF91CF911F9147
:102530000F910895CF93DF93DC011596ED91FC91F7
:1025400016970680F781E02DA489B589C685D785C1
:10255000808991898C839D83C089D189868597855F
:102560008A839B839F01245F3F4F11968D919C919D
:1025700012978217930731F48089918911968D9370
:102580009C931297148A158A8C9181508C93809118
:102590004E22811160C0A285B385C481D581868118
:1025A00097818C839D83C681D781848195818A831D
:1025B0009B839F012E5F3F4F11968D919C911297A7
:1025C0008217930731F48681978111968D939C939E
:1025D0001297128613868C9181508C9386899091E4
:1025E0005922981710F48093592290E0DC01AA0F29
:1025F000BB1FAA0FBB1FAA0FBB1F8A0F9B1FDC01AB
:10260000A458BD4D11960D90BC91A02DA483B58307
:1026100014968D919C911597868397831496CD91EE
:10262000DC9115972A833B8314962D933C93159741
:10263000A689B0E0CD01880F991F880F991F880FD8
:10264000991FA80FB91FA458BD4DA287B3878C91BD
:102650008F5F8C931CC04DE552E2DA011196CD914B
:10266000DC911297C687D7878C819D81808B918B57
:102670008C819D81DC0112962D933C9313972C83C2
:102680003D83448B558BDA018C918F5F8C93A091A5
:10269000A922B091AA22968956968C91891720F486
:1026A00081E08093552201C080E0DF91CF910895B1
:1026B00020915422FC01208320915A2230915B22E8
:1026C0002183328308950FB6F8940F9220915A22F5
:1026D00030915B22DC0111964D915C911297E09153
:1026E0005422FC91FE1741F02417350728F0FB0116
:1026F0001082118281E014C0241B350BDB014D9147
:102700005C912417350740F4FB01421B530B4083B7
:102710005183CEDF80E004C0FB011082118281E092
:102720000F900FBE089581E0809355220895FC011B
:1027300062837383808791874617570790F0421B07
:10274000530B8485958548175907E0F4BF016E5FE8
:102750007F4F8091B1229091B2220E94380980E08F
:1027600008954217530718F46217730768F4BF01FE
:102770006E5F7F4F8091B3229091B4220E943809FE
:1027800080E0089581E0089581E00895EF92FF923E
:102790000F931F93CF93DF93EC018B017A0108C055
:1027A0008C859D85080F191FE889F989CE01199537
:1027B0006C857D85600F711F9801A701CE01B7DF81
:1027C0008111EECFDF91CF911F910F91FF90EF908C
:1027D0000895EF92FF920F931F93CF93DF938C0195
:1027E0007B01E091B322F091B4220580F681E02DC7
:1027F000C681D781CE0102960E9469098A8982FF2B
:1028000005C0A701B801CE01C1DF02C08E7F8A8B4F
:10281000E889F989CE011995DF91CF911F910F9128
:10282000FF90EF9008950F931F93CF93DF938C0148
:10283000B5DBEC018091AB229091AC22C817D9078F
:1028400030F5E091B322F091B4228081882379F0B1
:102850000580F681E02D6FEF7FEF80819181B9DFF8
:10286000E091B322F091B42280818111F1CF809167
:10287000B1229091B2228093B3229093B422E0933C
:10288000B122F093B22281E0F801808302C0F80106
:102890001082C093AB22D093AC22CE01DF91CF91B6
:1028A0001F910F910895CF93DF9300D000D0CDB743
:1028B000DEB7CE0101965C01082F1B2DE091B322FB
:1028C000F091B4228081882309F4A9C00580F681A3
:1028D000E02DE080F1805CDBC501A5DF6C01898122
:1028E000811117C0CE14DF0428F07ADCB601C701CD
:1028F00070DF88C040E0B7016C197D098091AF227C
:102900009091B02275D96CDC81117CC00E944C0A78
:1029100079C066DC77C0898188230CF473C0EC80B1
:10292000FD80D7011A968D919C911B97892B21F0E0
:10293000C70102960E946909CE01069674DF6C01F8
:10294000E9818E2FEE0F990BAA0BBB0BFC0131977F
:10295000E930F10508F056C08827E250FF4F8F4F4D
:1029600032C3F70182898160828B2A813B81648531
:102970007585620F731FA601C701D9DE882309F48C
:1029800041C0D70152968C91529782FF0CC06A8148
:102990007B811C968D919C911D97680F791FA601D4
:1029A000C701F4DE03C08E7FF701828BD7015096FA
:1029B000ED91FC915197C701199524C0F7018289C7
:1029C0008E7F828B1FC0D70152968C915297816067
:1029D00052968C9352976A817B811C966D937C935F
:1029E0001D976C0D7D1D9601A601C701A0DE0AC0D2
:1029F000F701828981FD04C0C7010E940B0B02C050
:102A00008E7F828B40E050E0602F712F8091AF224B
:102A10009091B0220E94FB0C81117DCF4FCFB8DA8C
:102A2000C50101DF6C018981811173CFE091B12271
:102A3000F091B222808141E0811140E0E12CF12C43
:102A40005ACF0FB6F8940F928091AF229091B02296
:102A5000892BE9F48EEB92E20E94260985EB92E243
:102A60000E9426098EEB92E28093B3229093B422C7
:102A700085EB92E28093B1229093B22240E065E030
:102A80008AE00E942E0C8093AF229093B0220F9088
:102A90000FBE0895EF92FF920F93D3DF8091AF2284
:102AA0009091B022892B89F00F2EFDEAEF2EF2E2F1
:102AB000FF2EF02D03E020E030E045E550E063E13B
:102AC00070E283E594E113D901C080E00F91FF909B
:102AD000EF900895CF93DF93FC0120E030E0C62F04
:102AE000D0E0DE01022E02C0B595A7950A94E2F768
:102AF000A0FD508B2F5F3F4F31962830310589F76D
:102B000040FF0AC041FF03C0FC01658302C0FC0115
:102B10006683FC01618302C0FC016283DF91CF9177
:102B2000089543E050E061E080EE97E0D3DF43E0BA
:102B300050E062E080EE97E0CDDF43E050E060E1FE
:102B400080E696E0C7DF41E050E460E280E696E090
:102B5000C1DF40E05BE160E280E896E0BBDF40E09F
:102B60005BE162E080EA96E0B5DF40E05BE164E0D3
:102B700080EA96E0AFDF43E050E062E080E696E076
:102B8000A9DF43E050E068E080E696E0A3DF43E0A1
:102B900050E068E080EA96E09DDF43E050E061E0CD
:102BA00080E696E097DF43E050E068E080E096E062
:102BB00091DF41E050E060E180E896E08BDF43E0A8
:102BC00050E062E080E696E085DF43E050E068E0B8
:102BD00080E696E07FDF40E050E064E080E696E04B
:102BE00079DF43E050E060E180EA96E073DF40E0A7
:102BF00050E061E080E096E06DDF40E050E064E0AE
:102C000080E096E067DF40E050E062E080E296E03E
:102C100061DF43E050E068E080E496E05BDF40E0A5
:102C200050E064E080E496E055DF43E050E068E087
:102C300080E696E04FDF40E050E064E080E696E01A
:102C400049DF43E050E068E080E896E043DF40E0A1
:102C500050E064E080E896E03DCF0895CF93DF93A5
:102C6000CDB7DEB7C058D109CDBFDEBF0F2EFBE117
:102C7000EF2EF0E2FF2EF02D6894DD24D7F88E01C0
:102C80000F5F1F4F6AE070E08091C9229091CA22C5
:102C90000E947F0D813031F58091C7229091C8222A
:102CA00001968093C7229093C8229F938F93FF929F
:102CB000EF921F92DF921F930F93B7D226E030E27C
:102CC00048E060E0C8010E94FD0820E040E050E0DC
:102CD00060E070E08091C9229091CA220E946E0C3F
:102CE000CDBFDEBF82E390E056DBCCCFCF93DF9346
:102CF000CDB7DEB7C058D109CDBFDEBF00EA16E0C0
:102D00000F2EFBE1CF2EF0E2DF2EF02D6894BB24D6
:102D1000B7F8CE0101967C01F801808581FD30C0B5
:102D20006AE070E08091C9229091CA220E947F0DD2
:102D3000813031F58091C7229091C822019680930D
:102D4000C7229093C8229F938F93DF92CF921F92B6
:102D5000BF92FF92EF9269D226E030E248E060E055
:102D6000C7010E94FD0820E040E050E060E070E014
:102D70008091C9229091CA220E946E0CCDBFDEBF05
:102D800085E090E008DBC8CFCF93DF93CDB7DEB707
:102D9000C058D109CDBFDEBF80E090E00F2EF0EE2D
:102DA000AF2EF7E0BF2EF02D6894882481F80F2E07
:102DB000F8E2CF2EF0E2DF2EF02D6894992497F8F8
:102DC0009E012F5F3F4F790101E0009709F000E07D
:102DD00010E0009719F4F501858202C0F5018682A2
:102DE00021E030E0892B09F420E03F932F93DF921C
:102DF000CF921F929F92FF92EF9217D226E030E27D
:102E000048E160E0C7010E94FD088BEB90E0C3DA67
:102E1000CDBFDEBFC801D8CFCF93DF93CDB7DEB72C
:102E2000C058D109CDBFDEBF81E090E00F2EF0EE9B
:102E3000AF2EF7E0BF2EF02D0F2EF3E3CF2EF0E2F2
:102E4000DF2EF02D6894992497F89E012F5F3F4F55
:102E5000790101E0009709F000E010E0009721F40B
:102E600021E0F501258303C021E0F501268321E05F
:102E700030E0892B09F420E03F932F93DF92CF922B
:102E80001F929F92FF92EF92D0D126E030E240E174
:102E900060E0C7010E94FD0882E390E07CDACDBFCC
:102EA000DEBFC801D6CFEF92FF920F933ADE87E0E4
:102EB0008093A2000E94E80480E18093850626E0CA
:102EC00030E240E060E08EE390E20E94FD08E12CF9
:102ED000F12C01E020E030E048EE53E06AE470E2DB
:102EE0008CE097E10E94770E02E020E030E048EEAF
:102EF00053E06AE470E284EC96E10E94770E03E00E
:102F000020E030E048EE53E06AE470E286E796E1C4
:102F10000E94770E00E020E030E048EE53E06AE4E3
:102F200070E28EE296E10E94770E43E060E081E07D
:102F30000E942E0C8093C9229093CA2220E040E088
:102F400050E060E070E00E946E0C0E949B0F80E0F9
:102F500090E00F91FF90EF900895AA1BBB1B51E1E9
:102F600007C0AA1FBB1FA617B70710F0A61BB70BF9
:102F7000881F991F5A95A9F780959095BC01CD019E
:102F80000895A1E21A2EAA1BBB1BFD010DC0AA1FAA
:102F9000BB1FEE1FFF1FA217B307E407F50720F0C2
:102FA000A21BB30BE40BF50B661F771F881F991F3D
:102FB0001A9469F760957095809590959B01AC0186
:102FC000BD01CF010895EE0FFF1F881F8BBF079033
:102FD000F691E02D19940F931F93CF93DF938230D6
:102FE000910510F482E090E0E091CD22F091CE22A4
:102FF00020E030E0A0E0B0E0309719F1408151814D
:103000000281138148175907C8F08417950769F49E
:10301000109731F012960C93129713961C9327C0B9
:103020000093CD221093CE2222C02115310519F034
:103030004217530718F49A01BD01EF01DF01F801AF
:10304000DBCF21153105F9F0281B390B2430310570
:1030500080F48A819B816115710521F0FB018283D7
:10306000938304C08093CD229093CE22FE013296AA
:1030700044C0FE01E20FF31F819391932250310966
:10308000288339833AC02091CB223091CC22232B44
:1030900041F420910220309103202093CB223093E1
:1030A000CC2220910020309101202115310541F4DE
:1030B0002DB73EB74091042050910520241B350BBD
:1030C000E091CB22F091CC22E217F307A0F42E1B63
:1030D0003F0B2817390778F0AC014E5F5F4F24177C
:1030E000350748F04E0F5F1F4093CB225093CC2200
:1030F0008193919302C0E0E0F0E0CF01DF91CF91A6
:103100001F910F910895CF93DF93009709F481C029
:10311000FC01329712821382A091CD22B091CE226F
:10312000109781F420813181820F931F2091CB224F
:103130003091CC222817390751F5E093CB22F09338
:10314000CC2267C0ED0120E030E0CE17DF0740F46D
:103150004A815B819E0141155105F1F0EA01F5CFED
:10316000C283D38340815181840F951FC817D9072B
:1031700059F488819981840F951F029680839183E9
:103180008A819B81828393832115310529F4E09301
:10319000CD22F093CE223DC0E901EA83FB83499121
:1031A0005991C40FD51FEC17FD0761F480819181FF
:1031B000840F951F0296E901888399838281938108
:1031C0008A839B83E0E0F0E012968D919C911397A7
:1031D000009719F0FD01DC01F7CF8D919C911197BB
:1031E0009D012E5F3F4F820F931F2091CB22309184
:1031F000CC222817390769F4309729F41092CD2290
:103200001092CE2202C012821382A093CB22B093DE
:10321000CC22DF91CF910895FB01DC0102C0019027
:103220000D9241505040D8F708950F931F93CF93BC
:10323000DF93CDB7DEB72E97CDBFDEBF0E891F89D6
:10324000888D998D26E02C8309831A8397FF02C00D
:1032500080E090E801978D839E83AE01445E5F4FCE
:103260006A8D7B8DCE01019616D04D815E8157FD12
:103270000AC02F813885421753070CF49A01F801D0
:10328000E20FF31F10822E96CDBFDEBFDF91CF91EC
:103290001F910F9108952F923F924F925F926F92DC
:1032A0007F928F929F92AF92BF92CF92DF92EF92D6
:1032B000FF920F931F93CF93DF93CDB7DEB72B977A
:1032C000CDBFDEBF6C017B018A01FC011682178233
:1032D000838181FFBFC1CE0101963C01F60193813C
:1032E000F70193FD859193FF81917F01882309F474
:1032F000ADC1853239F493FD859193FF81917F01B2
:10330000853221F4B60190E0D3D1E8CF912C212C65
:10331000312CFFE1F315D8F08B3279F038F480329C
:1033200079F08332A1F4232D20611DC08D3261F02C
:10333000803369F4232D216016C0832D8260382EDE
:10334000E32DE4603E2E2AC0F32DF8601DC037FC4B
:103350002DC020ED280F2A3040F08E32B9F436FC13
:1033600075C1232D2064322E19C036FE06C08AE0B6
:10337000989E200D1124922E11C0EAE02E9E200D61
:103380001124222EF32DF0623F2E08C08C3621F43A
:10339000832D8068382E02C0883641F4F70193FDF2
:1033A000859193FF81917F018111B3CF982F9F7DEC
:1033B0009554933028F40C5F1F4F9FE399830DC001
:1033C000833631F0833771F0833509F055C020C062
:1033D000F801808189830E5F1F4F88248394912C8C
:1033E000530112C02801F2E04F0E511CF801A080D9
:1033F000B18036FE03C0692D70E002C06FEF7FEF31
:10340000C5014BD14C018201F32DFF773F2E15C032
:10341000280122E0420E511CF801A080B18036FE46
:1034200003C0692D70E002C06FEF7FEFC5012AD1A4
:103430004C01F32DF0683F2E820133FC19C0822D20
:1034400090E088169906A0F4B60180E290E030D1B1
:103450002A94F5CFF50137FC859137FE81915F0104
:10346000B60190E025D121102A9421E0821A91081A
:103470008114910479F7E1C0843611F0893639F569
:10348000F80137FE07C060817181828193810C5FF2
:103490001F4F08C060817181072E000C880B990BAB
:1034A0000E5F1F4FF32DFF763F2E97FF09C09095BB
:1034B0008095709561957F4F8F4F9F4FF0683F2E9D
:1034C0002AE030E0A30130D1882E861844C0853729
:1034D00031F4232D2F7EB22E2AE030E025C0932D2B
:1034E000997FB92E8F36C1F018F4883579F0AEC0C7
:1034F000803719F0883721F0A9C0E92FE061BE2E8E
:10350000B4FE0DC0FB2DF460BF2E09C034FE0AC00E
:10351000292F2660B22E06C028E030E005C020E149
:1035200030E002C020E132E0F801B7FE07C0608160
:103530007181828193810C5F1F4F06C06081718110
:1035400080E090E00E5F1F4FA301EED0882E86181A
:10355000FB2DFF773F2E36FE0DC0232D2E7FA22E92
:10356000891458F434FE0BC032FC09C0832D8E7EC2
:10357000A82E05C0B82CA32C03C0B82C01C0B92CB0
:10358000A4FE0FC0FE01E80DF11D8081803321F4FF
:103590009A2D997EA92E09C0A2FE06C0B394B394B9
:1035A00004C08A2D867809F0B394A3FC10C0A0FE55
:1035B00006C0B21480F4280C922C9B180DC0B214D3
:1035C00058F4B60180E290E073D0B394F8CFB2140F
:1035D00018F42B1802C0982C212CA4FE0FC0B601A1
:1035E00080E390E065D0A2FE16C0A1FC03C088E78E
:1035F00090E002C088E590E0B6010CC08A2D867884
:1036000051F0A1FE02C08BE201C080E2A7FC8DE276
:10361000B60190E04DD0891430F4B60180E390E01B
:1036200047D09A94F8CF8A94F301E80DF11D808178
:10363000B60190E03DD08110F6CF222009F44ECEA5
:10364000B60180E290E034D02A94F7CFF60186816B
:10365000978102C08FEF9FEF2B96CDBFDEBFDF912A
:10366000CF911F910F91FF90EF90DF90CF90BF907F
:10367000AF909F908F907F906F905F904F903F9012
:103680002F900895FC010590615070400110D8F70B
:10369000809590958E0F9F1F0895FC01615070409A
:1036A00001900110D8F7809590958E0F9F1F089577
:1036B0000F931F93CF93DF93FB01238121FD03C061
:1036C0008FEF9FEF2CC022FF16C0468157812481C7
:1036D00035814217530744F4A081B1819D012F5FCA
:1036E0003F4F208331838C93268137812F5F3F4F5B
:1036F0002683378314C08B01EC01FB010084F18524
:10370000E02D1995892BE1F6D80116968D919C91A3
:103710001797019616968D939C931797CE01DF917C
:10372000CF911F910F910895FA01AA27283051F1E6
:10373000203181F1E8946F936E7F6E5F7F4F8F4FE2
:103740009F4FAF4FB1E03ED0B4E03CD0670F781F41
:10375000891F9A1FA11D680F791F8A1F911DA11D26
:103760006A0F711D811D911DA11D20D009F468945F
:103770003F912AE0269F11243019305D3193DEF607
:10378000CF010895462F4770405D4193B3E00FD0BD
:10379000C9F7F6CF462F4F70405D4A3318F0495DA8
:1037A00031FD4052419302D0A9F7EACFB4E0A6958B
:1037B0009795879577956795BA95C9F700976105AD
:1037C000710508959B01AC010A2E06945795479503
:1037D00037952795BA95C9F7620F731F841F951FF8
:0837E000A01D0895F894FFCF2D
:1037E8000000CF222000000E020607207D04494475
:1037F8004C4500546D722053766300436F756E74A8
:103808006572203A202564004C45442031203A2036
:103818002564004C45442030203A20256400525449
:0C3828004F53207631302E322E3100003C
:00000001FF
